:020000040800F2
:10000000A806002029020008950700088D070008AF
:1000100091070008E3020008290E00080000000014
:10002000000000000000000000000000B50A000809
:10003000B50600080000000025080008CD0B0008E8
:10004000430200084302000843020008430200087C
:10005000430200084302000843020008430200086C
:10006000430200084302000843020008430200085C
:10007000430200084302000843020008430200084C
:10008000430200084302000843020008430200083C
:10009000430200084302000843020008430200082C
:1000A000430200084302000843020008430200081C
:1000B000430200084302000843020008430200080C
:1000C00043020008430200084302000843020008FC
:1000D00043020008430200084302000843020008EC
:1000E00043020008430200084302000843020008DC
:1000F00043020008430200084302000843020008CC
:1001000043020008430200084302000843020008BB
:1001100043020008430200084302000843020008AB
:100120004302000843020008E902000843020008F5
:10013000430200084302000843020008430200088B
:10014000430200084302000843020008430200087B
:10015000430200084302000843020008430200086B
:10016000430200084302000843020008430200085B
:10017000430200084302000843020008430200084B
:10018000430200084302000800F002F800F03CF8C7
:100190000AA090E8000C82448344AAF10107DA45E2
:1001A00001D100F031F8AFF2090EBAE80F0013F0F8
:1001B000010F18BFFB1A43F001031847CC0C0000D5
:1001C000EC0C0000103A24BF78C878C1FAD8520766
:1001D00024BF30C830C144BF04680C6070470000C1
:1001E0000023002400250026103A28BF78C1FBD840
:1001F000520728BF30C148BF0B6070471FB500F0E1
:100200003EFE1FBD10B510BD00F031F81146FFF7DE
:10021000F5FF00F029FE00F04FF803B4FFF7F2FFFE
:1002200003BC00F057F80000094880470948004720
:10023000FEE7FEE7FEE7FEE7FEE7FEE7FEE7FEE796
:10024000FEE7FEE704480549054A064B70470000F3
:10025000D10B000889010008A8000020A806002092
:10026000A8020020A802002070477047704775461A
:1002700000F02CF8AE4605006946534620F0070012
:10028000854618B020B5FFF7DDFFBDE820404FF0F0
:1002900000064FF000074FF000084FF0000B21F070
:1002A0000701AC46ACE8C009ACE8C009ACE8C0093D
:1002B000ACE8C0098D46704710B50446AFF3008026
:1002C0002046BDE81040FFF7A8BF00000048704777
:1002D0004400002001491820ABBEFEE726000200C2
:1002E000704700BFFEE7000010B53A493A4800F0F9
:1002F00065F900286CD04FF08151374800F072F852
:100300003449354800F088F8344800783349497852
:1003100040EA0120C0F30A00314908802F484078A4
:10032000C0102E49897840EA4110C0F30A002C49D8
:1003300048802A48807880112849C97840EA81009D
:100340002649097940EA8120C0F30A0024498880BF
:100350002248007940102149497940EAC110C0F390
:100360000A001F49C8801D484079001180080872A2
:100370001A484079C0F3011048721848807917492B
:10038000C97940EA012000B2154948811348007A32
:100390001249497A40EA012001B2114881810F488F
:1003A000807A0E49C97A40EA012001B20C48C18125
:1003B0000A48017B0A4801740848417B0848417497
:1003C0000648807B0549C97B40EA012004494882F0
:1003D00010BD000000802010406402402800002072
:1003E000140000200246094B9A4201D2084801E05D
:1003F0000648103801F000531BB1064B0B40C36098
:1004000002E0044B0B408360704700001064024020
:10041000006002407D0F7D0F0246094B9A4201D2D7
:10042000084801E00648103801F000531BB1064BA4
:100430000B40C36002E0044B0B4083607047000038
:1004400010640240006002407D0F7D0F21B1026800
:1004500042F00102026003E0026822F00102026041
:1004600070470000016821F0010101600021016076
:1004700041608160C1600161212141614A49884236
:1004800004D13D21484A103A91608CE04649183128
:10049000884205D14FF47461434A103A916082E07A
:1004A00041493031884205D14FF474113E4A103A27
:1004B000916078E03C494831884205D14FF0746141
:1004C000394A103A91606EE037496031884204D170
:1004D0003649354A103AD16065E03349783188426F
:1004E00004D13349304A103AD1605CE02E49903152
:1004F000884204D12F492C4A103AD16053E02A494E
:10050000A831884205D14FF03D51274A103AD160B9
:1005100049E02949884204D13D21274A083A11601F
:1005200041E025491831884205D14FF47461224ACF
:10053000083A116037E020493031884205D14FF444
:1005400074111D4A083A11602DE01B494831884258
:1005500005D14FF07461184A083A116023E016493A
:100560006031884204D11149134A121F11601AE008
:1005700011497831884204D10D490F4A121F116088
:1005800011E00D499031884204D10A490A4A121FEC
:10059000116008E00849A831884204D14FF03D516C
:1005A000054A121F11607047106002403D00002094
:1005B000400F002000003D201064024070B502464C
:1005C000002000240025124EB24201D2114B01E05E
:1005D0000F4B103B104E0E4036B11E2606EAD124BA
:1005E000166806EA040502E0566906F0800501F087
:1005F00000560EB15C6800E01C68084E344004EA06
:10060000010616B10DB1012000E0002070BD000010
:1006100010640240006002403C0F3C0F7D0F7D0FD4
:1006200010B501F080034BB122B1436943F0800360
:10063000436103E0436923F08003436180290BD0C9
:100640002AB1036801F01E042343036004E0036839
:1006500001F01E04A343036010BD000010B500228A
:100660000268134B1A40CC680B6823434C69234340
:100670008C692343CC6923430C6A23434C6A23438C
:100680008C6A23434C6B23438C6B23431A430260D5
:10069000426922F00702D1E90B3423431A43426135
:1006A0000B6943604B6883608B68C36010BD0000BA
:1006B0003F801CF07047F0B50A460021002300245B
:1006C00000BF3DE0012505FA01F3156805EA0304C2
:1006D0009C4234D105684F000326BE40B5430560F7
:1006E00015794E00B5400668354305601579012D32
:1006F00002D01579022D16D185684F000326BE4021
:10070000B543856055794E00B540866835438560B0
:10071000456801268E40B5434560456896798E4010
:10072000B6B235434560C5684F000326BE40B543A9
:10073000C560D5794E00B540C6683543C560491CD3
:100740001029BFD3F0BDF0B5002300244D07ED0EF6
:1007500002FA05F3CE1000F1200555F826504E0799
:10076000F70E0F26BE40B543CF1000F1200646F825
:100770002750CE1000F1200555F8265045EA030415
:10078000CE1000F1200545F82640F0BD00BFFEE781
:1007900000BFFEE77047000070B5002100230F2264
:1007A000C4781CB3174C246804F4E064C4F5E06416
:1007B000C4F30721C1F10404E3B20A4144789C4028
:1007C000E1B28478144021430C07210E0E4C0578C9
:1007D0006155047804F01F050124AC4005786D11C3
:1007E000AD0005F1E025C5F8004109E0047804F00A
:1007F0001F050124AC40054D0678761145F82640CA
:1008000070BD00000CED00E000E400E080E100E0DD
:1008100002490143024A1160704700000000FA05D6
:100820000CED00E07047000029B1064A126802434F
:10083000044B1A6004E0034A12688243014B1A60B9
:10084000704700003038024029B1064A126802435E
:10085000044B1A6004E0034A12688243014B1A6099
:10086000704700002038024029B1064A126802434E
:10087000044B1A6004E0034A12688243014B1A6079
:10088000704700004438024029B1064A126802430A
:10089000044B1A6004E0034A12688243014B1A6059
:1008A0007047000024380240F0B5002100220024E7
:1008B000022500260223324F3F6807F00C0121B1C8
:1008C000042905D0082937D105E02E4F076036E00E
:1008D0002D4F076033E02A4F3F1F3F68C7F3805614
:1008E000274F3F1F3F6807F03F036EB1264FB7FB0E
:1008F000F3F7DFF88CC0ACF1040CDCF800C0CCF3EB
:10090000881C07FB0CF40CE01E4FB7FBF3F7DFF875
:1009100070C0ACF1040CDCF800C0CCF3881C07FB01
:100920000CF4174F3F1F3F68C7F301477F1C7D0042
:10093000B4FBF5F7076002E0124F076000BF00BF8D
:100940000F4F3F6807F0F0010909104F7A5C076804
:10095000D74047600A4F3F6807F4E051890A0B4FC0
:100960007A5C4768D7408760054F3F6807F460416D
:10097000490B064F7A5C4768D740C760F0BD00005E
:10098000083802400024F40040787D010000002077
:1009900000B58FB001214148FFF746FF012110202B
:1009A000FFF762FF07220A213D48FFF7CCFE4FF414
:1009B00080600D9002208DF8380000208DF83A00FC
:1009C00003208DF8390000208DF83B000DA9344834
:1009D000FFF771FE334800F045F9334809900020D5
:1009E000ADF82800ADF82A004FF48060ADF82C0077
:1009F0000420ADF82E000020ADF8300009A92948E8
:100A000000F0A8F90121274800F016F90122402141
:100A1000244800F01DF93A208DF8380001208DF8A7
:100A200039008DF83A008DF83B000EA8FFF7B4FEB0
:100A30001E48FFF717FD4FF0006000901948001D99
:100A400001901B4802900020039012200490002087
:100A500005904FF4806006900020079008904FF4B6
:100A6000807009904FF440300A9000200B900C9059
:100A70000D900E9069460D48FFF7F0FD0122102100
:100A80000A48FFF7CDFD00210848FFF7DFFC0121F0
:100A90000648FFF7DBFC0FB000BD0000010040007E
:100AA0000000024000100140A086010040640240A6
:100AB00028000020704700000CB500200190009035
:100AC0003448006840F480303249086000BF314843
:100AD000006800F4003000900198401C01900098DC
:100AE00018B90198B0F5A04FF1D12A48006800F478
:100AF000003010B10120009001E00020009000982B
:100B0000012846D123484030006840F080502149F8
:100B1000403108602048006840F440401E490860A9
:100B20001C48083000681B49083108600846006806
:100B300040F4004008600846006840F4A050086097
:100B40001648091F0860081F006840F08070091FE0
:100B5000086000BF0F48006800F000700028F9D05E
:100B600040F205700E4908600A480830006820F01D
:100B700003000849083108600846006840F0020098
:100B8000086000BF03480830006800F00C00082827
:100B9000F8D10CBD003802400070004019544007E5
:100BA000003C0240042808D14FF0E021096941F0DF
:100BB00004014FF0E022116107E04FF0E0210969E4
:100BC00021F004014FF0E0221161704770470000EE
:100BD00010B51548006840F47000134908601348C8
:100BE000006840F001001149086000200F490831F9
:100BF00008600E4800680E4908400C4908600D481E
:100C0000091D0860081F006820F48020091F086083
:100C1000002006490C310860FFF74EFF4FF00060DE
:100C200001498039086010BD88ED00E000380240BD
:100C3000FFFFF6FE1030002421B1828942F40052F9
:100C4000828104E082894DF6FF731A4082817047E9
:100C50001AB1838A0B43838202E0838A8B438382A7
:100C60007047000010B504463248844208D1012183
:100C70001020FFF709FE00211020FFF705FE57E0C6
:100C80002D48844209D101214804FFF7DDFD0021F0
:100C90004FF40030FFF7D8FD4AE02848844209D1DC
:100CA00001218804FFF7D0FD00214FF48020FFF7D9
:100CB000CBFD3DE02248844209D10121C804FFF761
:100CC000C3FD00214FF40020FFF7BEFD30E01D48BA
:100CD000844209D101210805FFF7B6FD00214FF438
:100CE0008010FFF7B1FD23E01748844208D10121AD
:100CF0002020FFF7C9FD00212020FFF7C5FD17E0E8
:100D00001248844209D101218807FFF79DFD002187
:100D10004FF08040FFF798FD0AE00D48844207D16C
:100D200001214005FFF790FD00216005FFF78CFDD4
:100D300010BD000000100140004400400048004089
:100D4000004C00400050004000140140007800407A
:100D5000007C00402DE9FF4705460E460024A146D1
:100D600000BFA046B08900B100BF2C8A24F44054D3
:100D7000F08804432C82AC8941F20C608443B08833
:100D800031890843718908430443AC81AC8A24F457
:100D90004074B0890443AC826846FFF785FD204863
:100DA000854202D01F48854202D1DDF80C9001E057
:100DB000DDF80890A88900F4004040B109EBC900B3
:100DC00000EB091031684900B0FBF1F707E009EBCF
:100DD000C90000EB091031688900B0FBF1F764200D
:100DE000B7FBF0F004012009642101FB1078A88909
:100DF00000F4004040B1322000EBC800B0FBF1F03D
:100E000000F00700044308E0322000EB08106421E2
:100E1000B0FBF1F000F00F0004432C81BDE8FF8728
:100E2000001001400014014000BFFEE710B5044669
:100E30006FF00400FFF7B6FEE11704EB5171C1F348
:100E4000C701074A11701046007800EB4001C1EB62
:100E5000C0104FF6FF7101EAC0000249088010BDC2
:100E60001000002012000020A820FFF7DFFFFFF78E
:100E70008FFD4FF4A060FFF7CBFC00BFFEE74FF003
:100E80004070E1EE100A7047A80E00080000002034
:100E900014000000C4010008BC0E0008140000206B
:100EA00094060000E00100080000000001020304B5
:0C0EB0000102030406070809000000000E
:040000050800018965
:00000001FF
