:020000040800F2
:10000000D8090020A1010008A51300083513000835
:10001000A1130008E9010008851C00080000000089
:10002000000000000000000000000000551800085B
:100030005912000800000000A51500086D190008FD
:10004000BB010008BB010008BB010008BB010008A0
:10005000BB010008BB010008BB010008BB01000890
:10006000BB010008BB010008BB010008BB01000880
:10007000BB010008BB010008BB010008BB01000870
:10008000BB010008BB010008BB010008BB01000860
:1000900039020008BB010008BB010008BB010008D1
:1000A000BB010008BB010008BB010008BB01000840
:1000B000BB010008BB010008BB010008BB01000830
:1000C000BB010008BB010008BB010008BB01000820
:1000D000BB010008BB010008BB010008BB01000810
:1000E000BB010008BB010008BB010008BB01000800
:1000F000BB010008BB010008BB010008BB010008F0
:10010000BB010008BB010008BB010008BB010008DF
:10011000BB010008D9190008BB010008BB01000899
:10012000BB010008BB010008E50E0008BB01000888
:10013000BB010008BB010008BB010008BB010008AF
:10014000E9060008BB010008BB010008BB0100086C
:10015000BB010008BB010008BB010008BB0100088F
:10016000BB010008BB010008BB010008BB0100087F
:10017000BB010008BB010008BB010008BB0100086F
:10018000BB010008BB010008DFF810D000F01AF82E
:100190000048004719230008AFF30080D809002069
:1001A0000648804706480047FEE7FEE7FEE7FEE711
:1001B000FEE7FEE7FEE7FEE7FEE7FEE7711900084F
:1001C00089010008064C074D06E0E06840F0010395
:1001D00094E8070098471034AC42F6D3FFF7D8FFF5
:1001E0005C2400087C24000800BFFEE72DE9F041F4
:1001F00004460D4616461F464FF400700C49086031
:1002000000200872487208208872200AC8720846C6
:100210000473290A41738573310AC1730674390A5C
:10022000417487740146034800F06FFDBDE8F0811A
:100230002C0100200064004010B50221CB4800F0E2
:10024000C9FB00286FD00221C84800F0EBFAC84A69
:100250000021C64800F0E1FCC5480068A0F201207A
:1002600030B1012860D002287ED003285AD115E190
:10027000C048018A0183BE48007BBD49C97A40EA73
:10028000012000B2BB490882B948817B407B41EA2A
:10029000002001B2B7484182B548017CC07B41EAE9
:1002A000002001B2B3488182B148417CB1488175D8
:1002B000B0F91010B0F91800081A10F5805F05DACF
:1002C000AC48408B401C01B2AA484183A948B0F910
:1002D0001010B0F91800081AB0F5805F05DDA548C8
:1002E000408B401E01B2A3484183A248B0F91000E0
:1002F00000EE100AB8EEC00A9FED9F1AC0EE010A88
:100300009FED9E0A20EE800A9A48B0F91A0000EE8E
:10031000900AF8EEE00A9FED991A01EE200A95483E
:1003200080ED070A1FE11FE19248018C018590488A
:10033000007B8F49C97A40EA012000B28D490884C8
:100340008B48817B407B41EA002001B2894841848F
:100350008748017CC07B41EA002001B28548818446
:100360008348417C834800E03CE080F82610B0F9E7
:100370002010B0F92800081A10F5805F05DA7D48D2
:10038000408D401C01B27B4841857A48B0F920106D
:10039000B0F92800081AB0F5805F05DD7548408D7A
:1003A000401E01B2734841857248B0F9200000EE4A
:1003B000100AB8EEC00ADFED700A80EE201A9FED39
:1003C0006F0A21EE000A6B48B0F92A0000EE900A8D
:1003D000F8EEE00A9FED691A01EE200A654880ED0B
:1003E0000B0AC0E06348018E01876148007B6049C9
:1003F000C97A40EA012000B25E4908865C48817BE8
:10040000407B41EA002001B25A4841865848017CAD
:10041000C07B41EA002001B2564881865448417CA5
:10042000544880F83610B0F93010B0F93800081A86
:1004300010F5805F05DA4F48408F401C01B24D48EF
:1004400041874C48B0F93010B0F93800081AB0F5BF
:10045000805F05DD4748408F401E01B24548418717
:100460004448B0F9300000EE100AF8EEC00A9FEDE3
:10047000421A80EE810ADFED410A20EE200A3D4853
:10048000B0F93A0000EE900AF8EEE00A9FED3B1A50
:1004900001EE200A374880ED0F0A64E03548B0F8D5
:1004A0004010A0F848103248007B3149C97A40EA30
:1004B000012000B22F49A1F840002D48817B407BEC
:1004C00041EA002001B22B48A0F842102848017CE4
:1004D000C07B41EA002001B22648A0F8441024481D
:1004E000417C244880F84610B0F94010B0F948002B
:1004F000081A10F5805F07DA1E48B0F84A00401C61
:1005000001B21C48A0F84A101A48B0F94010B0F9DE
:100510004800081AB0F5805F07DD1648B0F84A00B9
:10052000401E01B21348A0F84A101248B0F940002A
:1005300000EE100AF8EEC00A9FED0F1A80EE810A55
:10054000DFED0E0A20EE200A0A48B0F94A0000EE5C
:10055000900AF8EEE00A9FED091A01EE200A05481C
:1005600080ED130A00BF00BF10BD00000064004012
:10057000F00000208C00002000F8FF450000B4438C
:10058000F0B58BB007460C4615461E4601210220E9
:1005900001F00AF80121480601F016F84FF4407006
:1005A000099002208DF8280000208DF82A000320F1
:1005B0008DF8290000208DF82B0009A92B4800F0A8
:1005C0004CFE09220821294800F08FFE092211461D
:1005D000264800F08AFE00208DF81E008DF81F00CE
:1005E0008DF8200001208DF8210000208DF82200D8
:1005F0008DF823008DF81A008DF81B708DF81C50B3
:100600008DF81D40ADF8186006A9194800F07BFA76
:1006100000208DF812008DF8130001208DF81400D1
:100620000020ADF80800ADF80A00ADF80C00ADF8F8
:100630000E00ADF8100001208DF8150002A800F0A2
:1006400045F9012202210A4800F054FA14208DF8DD
:10065000040001208DF805008DF806008DF80700D4
:1006600001A800F0A1FE0BB0F0BD000000040240A4
:100670000064004070B50446002540F20710174999
:10068000086000204860087248720820887220784C
:10069000C872617811480173A1784173E178817360
:1006A0002179C1736179017400214174817401461B
:1006B0000B4800F02AFB0B49087001E0681C85B26A
:1006C00008480178064800F0B3FB08B9FF2DF5D1C2
:1006D000FF2D01DB002070BD0120FCE71801002088
:1006E000006800401600002010B502210B4800F001
:1006F00071F990B10221094800F094F8084A0021EC
:10070000064800F08AFA0648006840F2071188425D
:1007100003D10349034801F0BBFD10BD0068004050
:1007200004010020DC000020F0B58BB007460C4629
:1007300015461E460121022000F036FF0121480621
:1007400000F042FF0121880600F03EFF6020099082
:1007500002208DF8280000208DF82A0003208DF853
:10076000290000208DF82B0009A92C4800F075FD08
:1007700009220521294800F0B8FD09220621274851
:1007800000F0B3FD00208DF81E008DF81F008DF8DD
:10079000200001208DF8210000208DF822008DF826
:1007A00023008DF81A008DF81B708DF81C508DF801
:1007B0001D40ADF8186006A9194800F0A4F90F20F3
:1007C0008DF8120000208DF8130001208DF8140020
:1007D0000020ADF80800ADF80A00ADF80C00ADF847
:1007E0000E00ADF8100001208DF8150002A800F0F1
:1007F0006DF8012202210A4800F07CF940208DF8B2
:10080000040002208DF8050001208DF806008DF807
:10081000070001A800F0C8FD0BB0F0BD00040240C5
:1008200000680040B1F5007F3AD00FDC202928D0C5
:1008300006DC01291CD004291DD0082940D11DE067
:10084000402921D0B1F5807F3AD126E0B1F5004FA3
:1008500031D006DCB1F5806F25D0B1F5006F2FD116
:1008600024E0B1F5803F12D0B1F5003F28D111E06E
:10087000154A826025E00822C26022E01022C26090
:100880001FE0082202611CE01022026119E0082228
:10089000426016E01022426013E00422426010E041
:1008A000042242600DE0042242600AE000228261DC
:1008B0000422426005E0002282610422426000E0DE
:1008C00000BF00BF704700000101010010B500210A
:1008D000837A012202FA03F13D4A126842F00102D2
:1008E0003B4B1A603A4A1C3212688A43384B1C331D
:1008F0001A60027BCAB9364A0C3212688A43344BFA
:100900000C331A604288C38842EA0343304A4032BB
:10091000847A42F834300288838842EA03432C4ABE
:100920004032847A02EBC4025360027B012A19D15F
:10093000274A0C3212680A43254B0C331A6042884E
:10094000038842EA0343224A4032847A42F8343030
:10095000C288838842EA03431D4A4032847A02EB0C
:10096000C4025360C27A3AB9194A121D12688A4306
:10097000174B1B1D1A6006E0154A121D12680A4328
:10098000134B1B1D1A60028932B9114A14321268C6
:100990008A430F4B14331A600289012A06D10C4A8C
:1009A000143212680A430A4B14331A60427B012A3C
:1009B00006D1074A1C3212680A43054B1C331A60E1
:1009C000034A126822F00102014B1A6010BD0000B8
:1009D0000066004070B504460D4600266069284058
:1009E000002871D0B5F5807F5CD010DC082D35D0A3
:1009F00006DC012D20D0022D24D0042D72D127E059
:100A0000102D31D0202D35D0402D6BD138E0B5F5EB
:100A1000004F60D009DCB5F5007F49D0B5F5806F97
:100A20004CD0B5F5006F5DD14FE0B5F5803F2DD0CE
:100A3000B5F5003F56D12FE0A0682D4900F048FAE7
:100A4000064651E0E068032100F042FA06464BE01A
:100A5000E068082100F03CFA064645E0E068102115
:100A600000F036FA06463FE02069032100F030FA34
:100A7000064639E02069082100F02AFA064633E0EC
:100A80002069102100F024FA06462DE06068082154
:100A900000F01EFA064627E06068102100F018FA00
:100AA000064621E0A069012100F012FA06461BE08B
:100AB000A069022100F00CFA064615E0A0690421A5
:100AC00000F006FA06460FE00FE0A069702100F082
:100AD000FFF9064608E06068042100F0F9F90646CF
:100AE00002E0FFE7002600BF00E00026304670BDB0
:100AF000010101001AB143690B43436102E04369FC
:100B00008B434361704730B50246002000231468D0
:100B100024F002041460146844F00104146000E03E
:100B20005B1C546804F001041CB94FF6FF74A34227
:100B3000F6D1546804F001040CB900206CE08C7903
:100B4000012C04D1146844F08004146003E014689C
:100B500024F080041460CC79012C04D1146844F092
:100B60004004146003E0146824F0400414600C7A1C
:100B7000012C04D1146844F02004146003E01468CC
:100B800024F0200414604C7A012C04D1146844F041
:100B90001004146003E0146824F0100414608C7ACC
:100BA000012C04D1146844F00804146003E01468B4
:100BB00024F008041460CC7A012C04D1146844F0A9
:100BC0000404146003E0146824F0040414608C78B6
:100BD000A407CD7844EA05640D7944EA05444D79CB
:100BE00044EA05540D886D1E2C43D461146824F02A
:100BF00001041460002300E05B1C546804F001044D
:100C00001CB14FF6FF74A342F6D1546804F00104FE
:100C10000CB1002000E0012030BD10B500F5D87304
:100C200003EB01131B6803F004031372137A53B927
:100C300000F5D87303EB01131B6840F2FF7404EA5C
:100C40005353136009E000F5D87303EB01131B68DD
:100C50006FF0604404EAD303536000F5D87303EBEC
:100C600001131B6803F00203537200F5D87303EB02
:100C700001135B6803F00F03937200F5D87303EB65
:100C800001135B681B0AD37400F5D87303EB0113DF
:100C90009B68D37200F5D87303EB01139B681C0AA1
:100CA000147300F5D87303EB01139B681C0C547389
:100CB00000F5D87303EB01139B681B0E937300F5CB
:100CC000D87303EB0113DB68D37300F5D87303EB20
:100CD0000113DB681C0A147400F5D87303EB0113CD
:100CE000DB681C0C547400F5D87303EB0113DB684C
:100CF0001B0E937421B9C36843F02003C36003E063
:100D0000036943F02003036110BD10B502460020C3
:100D1000936803F08063B3F1806F00D110E09368B3
:100D200003F00063B3F1006F01D1012008E0936884
:100D300003F08053B3F1805F01D1022000E0042072
:100D4000042874D002F5C07303EB00131B6803F092
:100D5000010402F5C07303EB00131C600B7A7BB92E
:100D60004B7A0C8843EA445302F5C07404EB001438
:100D70002468234302F5C07404EB0014236010E0E0
:100D80000B7A4C6843EAC4034C7A234302F5C074DF
:100D900004EB00142468234302F5C07404EB001430
:100DA00023608B7A03F00F038B7202F5C07303EBA1
:100DB00000135B6823F00F0402F5C07303EB00130C
:100DC0005C6002F5C07303EB00135B688C7A23430D
:100DD00002F5C07404EB001463608B7B1C064B7B34
:100DE00044EA03440B7B44EA0323CC7A234302F511
:100DF000C07404EB0014A3608B7C1C064B7C44EA9B
:100E000003440B7C44EA0323CC7B234302F5C074E8
:100E100004EB0014E36002F5C07303EB00131B68DE
:100E200043F0010402F5C07303EB00131C6010BD16
:100E300010B50246002321B1012907D002290FD1A4
:100E400009E090681D4C00EA04030BE090681C4C1C
:100E500000EA040306E090681A4C00EA040301E08B
:100E6000002300BF00BF184C181BA34216D007DC9C
:100E700083B16FF08060184470B1022818D111E07E
:100E8000B0F5007F10D0114C204448B1B0F5003FC0
:100E90000ED10BE002230DE000230BE0002309E05C
:100EA000002307E0012305E0012303E0012301E023
:100EB000002300BF00BFD8B210BD00000300000433
:100EC0000003000800000310000100080001FFF704
:100ED0000246002002EA01030BB1012000E00020DD
:100EE0007047000010B52449244800F039F9002863
:100EF00041D04FF08151214800F046F81E491F486B
:100F000000F05CF81E4800781D49497840EA01204D
:100F1000C0F30A001B49088019484078C0101849DE
:100F2000897840EA4110C0F30A0016494880144805
:100F3000807880111249C97840EA81001049097906
:100F400040EA8120C0F30A000E4988800C480079ED
:100F500040100B49497940EAC110C0F30A00094921
:100F6000C880074840790011800808720448407919
:100F7000C0F30110487210BD008020104064024090
:100F80005C000020480000200246094B9A4201D232
:100F9000084801E00648103801F000531BB1064B29
:100FA0000B40C36002E0044B0B40836070470000BD
:100FB00010640240006002407D0F7D0F0246094B25
:100FC0009A4201D2084801E00648103801F0005367
:100FD0001BB1064B0B40C36002E0044B0B40836027
:100FE0007047000010640240006002407D0F7D0FDA
:100FF00021B1026842F00102026003E0026822F0BF
:101000000102026070470000016821F001010160E7
:101010000021016041608160C16001612121416165
:101020004A49884204D13D21484A103A91608CE0F7
:1010300046491831884205D14FF47461434A103A49
:10104000916082E041493031884205D14FF47411FA
:101050003E4A103A916078E03C494831884205D1D7
:101060004FF07461394A103A91606EE0374960314F
:10107000884204D13649354A103AD16065E0334997
:101080007831884204D13349304A103AD1605CE06B
:101090002E499031884204D12F492C4A103AD16010
:1010A00053E02A49A831884205D14FF03D51274AE3
:1010B000103AD16049E02949884204D13D21274AAC
:1010C000083A116041E025491831884205D14FF4B2
:1010D0007461224A083A116037E020493031884271
:1010E00005D14FF474111D4A083A11602DE01B49D7
:1010F0004831884205D14FF07461184A083A1160AE
:1011000023E016496031884204D11149134A121F65
:1011100011601AE011497831884204D10D490F4A13
:10112000121F116011E00D499031884204D10A4923
:101130000A4A121F116008E00849A831884204D108
:101140004FF03D51054A121F116070471060024078
:101150003D000020400F002000003D2010640240B0
:1011600070B50246002000240025124EB24201D282
:10117000114B01E00F4B103B104E0E4036B11E26B6
:1011800006EAD124166806EA040502E0566906F06C
:10119000800501F000560EB15C6800E01C68084E46
:1011A000344004EA010616B10DB1012000E0002030
:1011B00070BD000010640240006002403C0F3C0F14
:1011C0007D0F7D0F10B501F080034BB122B1436953
:1011D00043F08003436103E0436923F080034361EC
:1011E00080290BD02AB1036801F01E042343036059
:1011F00004E0036801F01E04A343036010BD000077
:1012000010B500220268134B1A40CC680B682343C8
:101210004C6923438C692343CC6923430C6A2343E1
:101220004C6A23438C6A23434C6B23438C6B2343CC
:101230001A430260426922F00702D1E90B342343CA
:101240001A4342610B6943604B6883608B68C360DB
:1012500010BD00003F801CF07047F0B50A46002129
:101260000023002400BF3DE0012505FA01F31568C5
:1012700005EA03049C4234D105684F000326BE40B2
:10128000B543056015794E00B540066835430560E5
:101290001579012D02D01579022D16D185684F00E0
:1012A0000326BE40B543856055794E00B54086683B
:1012B00035438560456801268E40B54345604568E5
:1012C00096798E40B6B235434560C5684F00032617
:1012D000BE40B543C560D5794E00B540C6683543BC
:1012E000C560491C1029BFD3F0BDF0B50023002410
:1012F0004D07ED0E02FA05F3CE1000F1200555F86A
:1013000026504E07F70E0F26BE40B543CF1000F112
:10131000200646F82750CE1000F1200555F826503B
:1013200045EA0304CE1000F1200545F82640F0BD43
:101330000183704700BFFEE71CB50121042000F0C7
:1013400033F90420009000208DF8060001208DF86C
:10135000040003208DF8050001208DF80700694680
:101360000E48FFF77AFF04210C48FFF7E1FF082041
:10137000009000208DF8060001208DF80400032065
:101380008DF8050001208DF8070069460348FFF736
:1013900064FF08210148FFF7CBFF1CBD0008024095
:1013A00000BFFEE77047000070B5002100230F2248
:1013B000C4781CB3174C246804F4E064C4F5E064FA
:1013C000C4F30721C1F10404E3B20A4144789C400C
:1013D000E1B28478144021430C07210E0E4C0578AD
:1013E0006155047804F01F050124AC4005786D11A7
:1013F000AD0005F1E025C5F8004109E0047804F0EE
:101400001F050124AC40054D0678761145F82640AD
:1014100070BD00000CED00E000E400E080E100E0C1
:1014200002490143024A1160704700000000FA05BA
:101430000CED00E0F0EE400A90ED100A80ED110A8C
:1014400090ED0F0A80ED100A00EE101AB8EEC00AF7
:1014500080ED060AC0ED070A00EE101AB8EEC00AC9
:1014600030EE600A80ED0F0A90ED010A90ED0F1A40
:1014700020EE010A80ED090A90ED0A0A90ED021AA9
:10148000D0ED0F1A01EE210A80ED0A0A90ED0D0A47
:1014900080ED0E0A90ED0C0A80ED0D0A90ED0F0A1A
:1014A00090ED101A30EE410A80ED0C0A90ED030A1F
:1014B00090ED0C1A20EE010A80ED0B0A90ED0A0A5D
:1014C00090ED051AB4EEC10AF1EE10FA04DD90EDCC
:1014D000050A80ED0A0A10E090ED0A0A90ED051A5F
:1014E000B1EE411AB4EEC10AF1EE10FA05D290ED58
:1014F000050AB1EE400A80ED0A0A90ED090A90ED66
:101500000A1A30EE010A90ED0B1A30EE010A80ED56
:10151000080A90ED080A90ED041AB4EEC10AF1EE43
:1015200010FA04DD90ED040A80ED080A10E090ED59
:10153000080A90ED041AB1EE411AB4EEC10AF1EEB8
:1015400010FA05D290ED040AB1EE400A80ED080AC7
:1015500090ED080A7047000080ED010AC0ED020A14
:1015600080ED031AC0ED041A80ED052ADFED0C2A88
:10157000C0ED0E2AC0ED0D2AC0ED0C2ADFED082AC1
:10158000C0ED082AC0ED0B2AC0ED0A2AC0ED092AD9
:10159000C0ED112AC0ED102AC0ED0F2A70470000DF
:1015A000000000007047000029B1064A126802439B
:1015B000044B1A6004E0034A12688243014B1A602C
:1015C000704700003038024029B1064A12680243D1
:1015D000044B1A6004E0034A12688243014B1A600C
:1015E000704700004038024029B1064A12680243A1
:1015F000044B1A6004E0034A12688243014B1A60EC
:10160000704700002038024029B1064A12680243A0
:10161000044B1A6004E0034A12688243014B1A60CB
:10162000704700004438024029B1064A126802435C
:10163000044B1A6004E0034A12688243014B1A60AB
:101640007047000024380240F0B500210022002439
:10165000022500260223324F3F6807F00C0121B11A
:10166000042905D0082937D105E02E4F076036E060
:101670002D4F076033E02A4F3F1F3F68C7F3805666
:10168000274F3F1F3F6807F03F036EB1264FB7FB60
:10169000F3F7DFF88CC0ACF1040CDCF800C0CCF33D
:1016A000881C07FB0CF40CE01E4FB7FBF3F7DFF8C8
:1016B00070C0ACF1040CDCF800C0CCF3881C07FB54
:1016C0000CF4174F3F1F3F68C7F301477F1C7D0095
:1016D000B4FBF5F7076002E0124F076000BF00BFE0
:1016E0000F4F3F6807F0F0010909104F7A5C076857
:1016F000D74047600A4F3F6807F4E051890A0B4F13
:101700007A5C4768D7408760054F3F6807F46041BF
:10171000490B064F7A5C4768D740C760F0BD0000B0
:10172000083802400024F40040787D0101000020C8
:1017300000B58FB001214148FFF736FF012110208D
:10174000FFF762FF07220A213D48FFF7CEFD4FF465
:1017500080600D9002208DF8380000208DF83A004E
:1017600003208DF8390000208DF83B000DA9344886
:10177000FFF773FD334800F053F933480990002018
:10178000ADF82800ADF82A004FF48060ADF82C00C9
:101790000420ADF82E000020ADF8300009A929483A
:1017A00000F006FA0121274800F024F90122402127
:1017B000244800F02BF93A208DF8380001208DF8EC
:1017C00039008DF83A008DF83B000EA8FFF7ECFDCC
:1017D0001E48FFF719FC4FF0006000901948001DEB
:1017E00001901B48029000200390122004900020DA
:1017F00005904FF4806006900020079008904FF409
:10180000807009904FF440300A9000200B900C90AB
:101810000D900E9069460D48FFF7F2FC0122102151
:101820000A48FFF7CFFC00210848FFF7E1FB012140
:101830000648FFF7DDFB0FB000BD000001004000CF
:101840000000024000100140A086010040640240F8
:101850005C000020704700000CB500200190009053
:101860003448006840F480303249086000BF314895
:10187000006800F4003000900198401C019000982E
:1018800018B90198B0F5A04FF1D12A48006800F4CA
:10189000003010B10120009001E00020009000987D
:1018A000012846D123484030006840F0805021494B
:1018B000403108602048006840F440401E490860FC
:1018C0001C48083000681B49083108600846006859
:1018D00040F4004008600846006840F4A0500860EA
:1018E0001648091F0860081F006840F08070091F33
:1018F000086000BF0F48006800F000700028F9D0B1
:1019000040F205700E4908600A480830006820F06F
:1019100003000849083108600846006840F00200EA
:10192000086000BF03480830006800F00C00082879
:10193000F8D10CBD00380240007000401954400737
:10194000003C0240042808D14FF0E021096941F031
:1019500004014FF0E022116107E04FF0E021096936
:1019600021F004014FF0E022116170477047000040
:1019700010B51548006840F470001349086013481A
:10198000006840F001001149086000200F4908314B
:1019900008600E4800680E4908400C4908600D4870
:1019A000091D0860081F006820F48020091F0860D6
:1019B000002006490C310860FFF74EFF4FF0006031
:1019C00001498039086010BD88ED00E00038024010
:1019D000FFFFF6FE1030002410B540F225510448F8
:1019E00000F096F818B1024800880148808810BDC0
:1019F0000050004021B1828942F40052828104E00B
:101A000082894DF6FF731A40828170471AB1838A2A
:101A10000B43838202E0838A8B43838270470000FA
:101A200010B504463248844208D101211020FFF746
:101A3000FBFD00211020FFF7F7FD57E02D48844201
:101A400009D101214804FFF7CFFD00214FF40030F8
:101A5000FFF7CAFD4AE02848844209D101218804E1
:101A6000FFF7C2FD00214FF48020FFF7BDFD3DE0F0
:101A70002248844209D10121C804FFF7B5FD0021A5
:101A80004FF40020FFF7B0FD30E01D48844209D13B
:101A900001210805FFF7A8FD00214FF48010FFF792
:101AA000A3FD23E01748844208D101212020FFF73D
:101AB000BBFD00212020FFF7B7FD17E0124884424C
:101AC00009D101218807FFF78FFD00214FF08040E9
:101AD000FFF78AFD0AE00D48844207D10121400545
:101AE000FFF782FD00216005FFF77EFD10BD0000BD
:101AF000001001400044004000480040004C0040FD
:101B0000005000400014014000780040007C00407C
:101B100070B50246002400230025002040F66A1616
:101B2000B14200D100BFC1F3421501F01F030126ED
:101B300006FA03F3012D02D19689334006E0022D07
:101B400002D1168A334001E0968A33400C120126F6
:101B500006FA04F41688344013B10CB1012000E0F9
:101B6000002070BDF0B503460024002600250020AB
:101B700040F66A17B94200D100BF1846C1F34214BB
:101B800001F01F06012707FA06F5012C01D10C30E0
:101B900004E0022C01D1103000E014301AB10768C3
:101BA0002F43076002E00768AF430760F0BD000005
:101BB0002DE9FF4705460E460024A14600BFA0467A
:101BC000B08900B100BF2C8A24F44054F08804434B
:101BD0002C82AC8941F20C608443B088318908437F
:101BE000718908430443AC81AC8A24F44074B08901
:101BF0000443AC826846FFF727FD2048854202D0A7
:101C00001F48854202D1DDF80C9001E0DDF8089014
:101C1000A88900F4004040B109EBC90000EB0910AD
:101C200031684900B0FBF1F707E009EBC90000EBB0
:101C3000091031688900B0FBF1F76420B7FBF0F0C0
:101C400004012009642101FB1078A88900F40040F8
:101C500040B1322000EBC800B0FBF1F000F007000B
:101C6000044308E0322000EB08106421B0FBF1F0DF
:101C700000F00F0004432C81BDE8FF8700100140F5
:101C80000014014000BFFEE702E008C8121F08C1AF
:101C9000002AFAD170477047002001E001C1121FED
:101CA000002AFBD17047000010B59FED6C2ADFEDD4
:101CB0006C1A6C4890ED001A6B48D0ED000A6B4826
:101CC00090ED000A6A48FFF747FC9FED642ADFEDBC
:101CD000641A644890ED001A6348D0ED000A634826
:101CE00090ED000A6348FFF737FC9FED5C2ADFEDBB
:101CF0005C1A5C4890ED001A5B48D0ED000A5B4826
:101D000090ED000A5C48FFF727FC9FED542ADFEDB9
:101D1000541A544890ED001A5348D0ED000A534825
:101D200090ED000A5548FFF717FC9FED4C2ADFEDB8
:101D30004C1A4C4890ED001A4B48D0ED000A4B4825
:101D400090ED000A4A489030FFF706FC9FED432AC9
:101D5000DFED431A434890ED001A4348D0ED000AE6
:101D6000424890ED000A43489030FFF7F5FB9FEDA5
:101D70003B2ADFED3B1A3B4890ED001A3A48D0ED84
:101D8000000A3A4890ED000A3B489030FFF7E4FB28
:101D90009FED322ADFED321A324890ED001A3248B8
:101DA000D0ED000A314890ED000A34489030FFF73A
:101DB000D3FB9FED2A2ADFED2A1A2A4890ED001A5C
:101DC0002948D0ED000A294890ED000A29484838F2
:101DD000FFF7C2FB9FED212ADFED211A214890ED8C
:101DE000001A2148D0ED000A204890ED000A224850
:101DF0004838FFF7B1FB9FED192ADFED191A194892
:101E000090ED001A1848D0ED000A184890ED000A2D
:101E10001A484838FFF7A0FB9FED102ADFED101A93
:101E2000104890ED001A1048D0ED000A0F4890EDD0
:101E3000000A1248D830FFF78FFBFFF77DFA032323
:101E4000052206210020FEF79BFB03230522062125
:101E50000020FEF769FC002010BD000000409C45FA
:101E600000008046200000201C00002018000020F8
:101E70007402002094030020B4040020D405002044
:101E800010B50024C348C088A0F5806000EE100A99
:101E9000B8EEC00ADFEDC00A80EE201A9FEDBF0A3F
:101EA00021EE000ABDEEC00ABD4880ED000AB94827
:101EB0008088A0F5806000EE100AB8EEC00ADFED61
:101EC000B60A80EE201A9FEDB50A21EE000ABDEE9B
:101ED000C00AB44880ED000AAE480088A0F58060D2
:101EE00000EE100AB8EEC00ADFEDAB0A80EE201A51
:101EF0009FEDAA0A21EE000ABDEEC00AAA4880EDB5
:101F0000000AA7480068002864D00124A748B0F957
:101F1000120000EE900AF8EEE00AB0EE600AA04867
:101F200000684142A248FFF785FABDEEC00A10EEF4
:101F3000100A00B29F4908809C48B0F9220000EEC8
:101F4000900AF8EEE00AB0EE600A954801689A48F7
:101F5000FFF770FABDEEC00A10EE100A00B2974902
:101F600008809248B0F9320000EE900AF8EEE00ADC
:101F7000B0EE600A8A4801689148FFF75BFABDEE4F
:101F8000C00A10EE100A00B28E4908808748B0F9E6
:101F9000420000EE900AF8EEE00AB0EE600A8048D7
:101FA000006841428848FFF745FABDEEC00A10EECE
:101FB000100A00B2854908800846B0F9003081480F
:101FC000B0F900207D48B0F900107A48B0F900005F
:101FD000FEF70CF973480068002868D001247348A4
:101FE000B0F9120000EE900AF8EEE00AB0EE600AD6
:101FF0006C48006841426E484838FFF71BFABDEE56
:10200000C00A10EE100A00B26A4908806748B0F9A9
:10201000220000EE900AF8EEE00AB0EE600A614895
:102020000068414264484838FFF704FABDEEC00A30
:1020300010EE100A00B2614908805C48B0F9320025
:1020400000EE900AF8EEE00AB0EE600A554801682A
:102050005B484838FFF7EEF9BDEEC00A10EE100AF3
:1020600000B2584908805148B0F9420000EE900A89
:10207000F8EEE00AB0EE600A4A4801685248483873
:10208000FFF7D8F9BDEEC00A10EE100A00B24F49B2
:1020900008800846B0F900304A48B0F900204748A7
:1020A000B0F900104348B0F90000FEF79FF83E4831
:1020B0000068002866D001243C48B0F9120000EE08
:1020C000900AF8EEE00AB0EE600A37480168384836
:1020D000D838FFF7AFF9BDEEC00A10EE100A00B213
:1020E000344908803148B0F9220000EE900AF8EE39
:1020F000E00AB0EE600A2C4801682D484830FFF72E
:1021000099F9BDEEC00A10EE100A00B22B49088002
:102110002648B0F9320000EE900AF8EEE00AB0EE80
:10212000600A2148016824484830FFF783F9BDEE72
:10213000C00A10EE100A00B2224908801B48B0F90C
:10214000420000EE900AF8EEE00AB0EE600A16488F
:1021500001681B484830FFF76DF9BDEEC00A10EE6C
:10216000100A00B2194908800846B0F90030154835
:10217000B0F900201148B0F900100E48B0F9000085
:10218000FEF734F82CB900231A4619461846FEF714
:102190002DF810BDDC0000200000254400C0DA4509
:1021A00038000020340000203C0000208C0000207B
:1021B0004C030020400000206C040020420000205E
:1021C0008C05002044000020AC06002046000020C2
:1021D00010B504466FF00400FFF7B4FBE11704EB01
:1021E0005171C1F3C701074A11701046007800EB26
:1021F0004001C1EBC0104FF6FF7101EAC000024977
:10220000088010BD120000201400002070B50446A4
:102210004FF4077094FBF0F0C6B24FF4077094FBD4
:10222000F0F100FB114085B205E04FF4077000F0BB
:1022300009F8701EC6B2002EF7D115B1284600F07D
:1022400001F870BD0146114A12884A434FF0E0235D
:102250005A6100229A611A46126942F001021A611B
:1022600000BF4FF0E022106900F001021AB100F443
:102270008032002AF5D04FF0E022126922F00102EC
:102280004FF0E0231A6100229A6170471400002089
:10229000CB7A0A7B43EA0222C2F30A0202800A7B5B
:1022A000D3104A7B43EA4212C2F30A0242804A7BBD
:1022B00093118A7B43EA8203CA7B43EA8222C2F3F8
:1022C0000A028280CA7B53100A7C43EAC212C2F31C
:1022D0000A02C2800A7C1211920802720A7CC2F3BE
:1022E000011242727047000010B5FFF721FAFFF7A4
:1022F00023F80323052206210020FEF741F90323DA
:10230000052206210020FEF70FFA0020014908608F
:1023100010BD000088024142A820FFF759FF4FF48A
:10232000E13000F02BF84FF4A060FFF779F80E4889
:102330000078012802D1FFF7D7FF04E00A480078AF
:1023400008B9FFF7B1FC0EE00120FFF75FFF064878
:102350000078012802D100F009F804E00248007872
:1023600008B9FFF78DFDEFE70000002010B5024827
:10237000FEF780F910BD00005C00002010B588B0A9
:10238000044601210D20FFF70FF901210805FFF791
:102390001BF9082202212E48FEF7A7FF08220C2174
:1023A0002C48FEF7A2FF4FF48050069002208DF8D3
:1023B0001C008DF81D0000208DF81E0001208DF8F6
:1023C0001F0006A92348FEF748FF042006900220BC
:1023D0008DF81C008DF81D0000208DF81E000120D6
:1023E0008DF81F0006A91A48FEF737FF0294002057
:1023F000ADF80C00ADF80E00ADF81000ADF814000B
:102400000C20ADF8120002A91348FFF7D1FB0122FE
:1024100040F225511048FFF7A5FB01210E48FFF7B8
:10242000E9FA012240F225510B48FFF79BFB3520CA
:102430008DF8040002208DF805008DF806000120BB
:102440008DF8070001A8FEF7AFFF08B010BD00002F
:10245000000C024000080240005000407C240008AC
:102460000000002048000000881C0008C424000868
:102470004800002090090000981C0008000000009F
:10248000000102030401020304060708090000001A
:10249000000000000000A041A69B443B000000405B
:1024A0000000A0400000000000000000000000004C
:1024B000000000000000000000000000000000001C
:0424C0000000000018
:040000050800018965
:00000001FF
