:020000040800F2
:10000000580C0020A1010008451A0008D519000865
:10001000411A0008B10700085F2400080000000032
:10002000000000000000000000000000751F000834
:10003000F918000800000000C51C00088D20000809
:10004000BB010008BB010008BB010008BB010008A0
:10005000BB010008BB010008BB010008BB01000890
:10006000BB010008BB010008BB010008BB01000880
:10007000BB010008BB010008BB010008BB01000870
:10008000BB010008BB010008BB010008BB01000860
:1000900045080008BB010008BB010008BB010008BF
:1000A000BB010008BB010008BB010008BB01000840
:1000B000BB010008BB010008BB010008BB01000830
:1000C000BB010008BB010008BB010008BB01000820
:1000D000BB010008BB010008BB010008BB01000810
:1000E000BB010008BB010008BB010008BB01000800
:1000F000BB010008BB010008BB010008BB010008F0
:10010000BB010008BB010008BB010008BB010008DF
:10011000BB010008F9200008BB010008BB01000872
:10012000BB010008BB01000879150008BB010008ED
:10013000BB010008BB010008BB010008BB010008AF
:100140004D0D0008BB010008BB010008BB01000801
:10015000BB010008BB010008BB0100081521000815
:10016000BB010008BB010008BB010008BB0100087F
:10017000BB010008BB010008BB010008BB0100086F
:10018000BB010008BB010008DFF810D000F086FAC0
:1001900000480047DD410008AFF30080580C002004
:1001A0000648804706480047FEE7FEE7FEE7FEE711
:1001B000FEE7FEE7FEE7FEE7FEE7FEE79120000828
:1001C000890100082DE9FE4F804681EA0300C00F37
:1001D0000C46009021F0004123F00045B8EB0200EE
:1001E000A94105D24046214690461C460B46024690
:1001F00023F00040104347D0270DC7F30A00C3F394
:100200000A510290401A019040286BDAC3F31300A0
:1002100040F4801B0098924620B10023D2EB030AE1
:1002200063EB0B0B01985946C0F14002504600F0B9
:1002300080F906460D4650465946019A00F088F965
:1002400010EB08006141002487EA115284EAE77349
:100250001A4340D0009A62B3019A012A4FEA07522A
:1002600015DC001B61EB02014FF0004202EA07526D
:10027000CDE90042001C41F5801132462B4600F0CA
:10028000BFF903B0BDE8F08F40462146F9E7001BF7
:1002900061EB0201001C41F5801300185B4120183E
:1002A000A2F5001747EB030140EAD570B6196D417E
:1002B00011E06D084FEA360645EAC0754FEA07526D
:1002C000001B61EB0201001C41F5801149084FEA57
:1002D00030000019514132462B4603B0BDE8F04FC3
:1002E00000F07FB90098012240000023D0EB020209
:1002F00063EBE073009821464FEAE074B8EB00002E
:1003000061EB0401E9E783F000435BE781F0004122
:1003100058E72DE9FE4F81EA030404F0004421F080
:10032000004100944FF0000B23F0004350EA010419
:100330005ED052EA03045BD0C3F30A54C1F30A55FA
:100340002C44A4F2F3340194A0FB0254C1F3130132
:1003500041F48011C3F3130343F4801301FB0244FF
:1003600000FB034E840A970A44EA815447EA835704
:10037000A4FB076802958D0A05FB07854FEA932CBD
:1003800004FB0C542705029D4FEA065847EA16372E
:10039000B5EB08056EEB070C870E920E47EA811746
:1003A00042EA8312A7FB0201B6EB0B0164EB0004E7
:1003B0002B0D43EA0C335E1844EB1C50DA465146D1
:1003C000E7FB0201C5F313044FEA0B3343EA14536E
:1003D0004FEA0432019C43EA0603A4F10C040294A0
:1003E000009CCDE900B400F00BF903B0BDE8F08F3C
:1003F00000200146F9E72DE9F04D81EA030404F0FD
:10040000004B21F0004514464FF0000A23F0004154
:1004100050EA050220D054EA01021DD0C5F30A5764
:100420000246C5F31303C1F31300C1F30A5640F4A7
:10043000801543F48013A7EB0608101BD64608F27C
:10044000FD3873EB050002D308F1010801E09218B2
:100450005B41B8F1000F03DA00200146BDE8F08DE2
:1004600000204FF48011064684460EE0171B73EB04
:10047000050705D3121B63EB050306434CEA010C89
:1004800049084FEA300092185B4150EA0107EDD16C
:1004900052EA030012D082EA040083EA050108430D
:1004A00005D0101BAB4106D20122002306E000223A
:1004B0004FF0004302E06FF0010253101AEB060008
:1004C0004CEB085110EB0A0041EB0B01BDE8F04D7D
:1004D00000F087B800F0004230F000400AD0C10DB3
:1004E00001F56071C0F3160042EA0151C2084007ED
:1004F0001143704700200146704701F0004330B4BB
:1005000021F0004150EA010206D00A0DA2F5607206
:10051000C1F31301002A02DC30BC00207047440FF5
:1005200044EAC104C100E01830BC00EBC25000F046
:1005300021B8202A04DB203A00FA02F1002070479B
:100540009140C2F1200320FA03F319439040704711
:10055000202A06DBCB17203A41FA02F043EAE07387
:1005600006E041FA02F3D040C2F120029140084374
:10057000194670470029A8BF7047401C490008BFB2
:1005800020F00100704710B4B0FA80FC00FA0CF0C3
:1005900050EA010404BF10BC704749B1CCF12004FB
:1005A00021FA04F411FA0CF118BF01212143084388
:1005B000A3EB0C01CB1D4FEA00614FEA102042BFB4
:1005C000002010BC704700EBC35010440029A4BFAA
:1005D00010BC7047401C490008BF20F0010010BC4F
:1005E000704710B5141E73F1000408DA401C41F185
:1005F000000192185B411A4301D120F0010010BDA7
:100600002DE9F04D92469B4611B1B1FA81F202E01C
:10061000B0FA80F220329046FFF78BFF04460F4677
:1006200040EA0A0041EA0B0153465A46084313D0F8
:10063000114653EA010019D0C8F14002504600F0BB
:100640003FF805460E46504659464246FFF771FFB1
:10065000084305D0012004E020463946BDE8F08D6E
:100660000020054346EAE0762C4337430A986305A9
:10067000E40AA0EB08000022FD0A44EA47540A30CD
:1006800002D500200146E9E7010510196941DDE9BD
:10069000084500196941BDE8F04DA2E7064C074D39
:1006A00006E0E06840F0010394E807009847103442
:1006B000AC42F6D3FFF76CFD3849000858490008F2
:1006C000202A04DB203A21FA02F00021704721FAA7
:1006D00002F3D040C2F1200291400843194670470E
:1006E0000EB5C10F80EAE0700844CA07002140F24D
:1006F00033438DE80E000A460B46FFF781FF03B037
:1007000000BD0EB540F2334102910021CDE9001148
:100710000A460B46FFF774FF03B000BD70B5C1F386
:100720000A5201F000450024C1F3130140F2FF33E7
:1007300041F480119A4201DA002070BD40F2334347
:100740009A42A2F2334203DC5242FFF7B9FF00E0C3
:1007500090402C43F1D0404270BD70B58C1810F819
:10076000015B15F0070301D110F8013B2A1106D1F6
:1007700010F8012B03E010F8016B01F8016B5B1E10
:10078000F9D12B0705D40023521E0DD401F8013BEB
:10079000FAE710F8013BCB1A921C03E013F8015B57
:1007A00001F8015B521EF9D5A142D8D3002070BDDB
:1007B00000BFFEE72DE9F04104460D4616461F46F0
:1007C0004FF400700C49086000200872487208203D
:1007D0008872200AC87208460473290A4173857317
:1007E000310AC1730674390A41748774014603489B
:1007F00000F0D5FDBDE8F08110020020006400404B
:1008000070B504460D4640F2FF100C490860002008
:100810000872487208208872200AC8720846047359
:10082000290A417385730021C17301744174817475
:100830000146034800F0B3FD70BD00002402002013
:100840000064004010B50221C84800F00DFC0028EB
:100850007ED00221C54800F02FFBC54A0021C348C5
:1008600000F025FDC2480068A0F20120062858D2F9
:10087000DFE800F00358B0FEFDFCBE48818A8183AA
:10088000BB48007BBA49C97A40EA012000B2B949A5
:100890008882B748817B407B41EA002001B2B5489D
:1008A000C182B348017CC07B41EA002001B2B1485B
:1008B0000183AF48417CAF488176B0F91410B0F99C
:1008C0001C00081A10F5805F05DAAA48C08B401C8E
:1008D00001B2A848C183A748B0F91410B0F91C00B0
:1008E000081AB0F5805F05DDA248C08B401E01B23A
:1008F000A048C1839F48B0F9140000EE100AB8EE7A
:10090000C00A9FED9D1AC0EE010A9A48B0F91E0078
:1009100000EE100AB8EEC00A30EE800A954880ED6D
:10092000090A20E19348018D01869148007B904996
:10093000C97A40EA012000B28E4908858C48817B43
:10094000407B41EA002001B28A484185884800E0A6
:100950000AE1017CC07B41EA002001B28548818523
:100960008348417C834880F82E10B0F92810B0F9F4
:100970003000081A10F5805F05DA7E48408E401C72
:1009800001B27C4841867B48B0F92810B0F93000AC
:10099000081AB0F5805F05DD7648408E401E01B232
:1009A000744841867348B0F9280000EE100AB8EE8A
:1009B000C00A9FED711AC0EE010A6E48B0F932000C
:1009C00000EE100AB8EEC00A30EE800A694880EDE9
:1009D0000E0AC8E06748818FA0F844106448007B85
:1009E0006349C97A40EA012000B2624988876048B9
:1009F000817B407B41EA002001B25E48C1875C48B0
:100A0000017CC07B41EA002001B25A48A0F84010A6
:100A10005748417C574880F84210B0F93C10B0F973
:100A20004400081A10F5805F07DA5248B0F8460013
:100A3000401C01B24F48A0F846104E48B0F93C1097
:100A4000B0F94400081AB0F5805F07DD4948B0F8F6
:100A50004600401E01B24748A0F846104548B0F98C
:100A60003C0000EE100AB8EEC00A02E076E070E04A
:100A700010E09FED411AC0EE010A3E48B0F9460071
:100A800000EE100AB8EEC00A30EE800A394880ED58
:100A9000130A68E03748B0F85010A0F858103448EE
:100AA000007B3349C97A40EA012000B23149A1F8FC
:100AB00050002F48817B407B41EA002001B22D4845
:100AC000A0F852102A48017CC07B41EA002001B204
:100AD0002848A0F854102648417C264880F8561033
:100AE000B0F95010B0F95800081A10F5805F07DA15
:100AF0002048B0F85A00401C01B21E48A0F85A1015
:100B00001C48B0F95010B0F95800081AB0F5805FD1
:100B100007DD1848B0F85A00401E01B21548A0F889
:100B20005A101448B0F9500000EE100AB8EEC00A8E
:100B30009FED111AC0EE010A0E48B0F95A0000EEFE
:100B4000100AB8EEC00A30EE800A0A4880ED180A92
:100B500009E00749094802F0C5FF04E004490848D4
:100B600003F032F800BF00BF10BD00000064004079
:100B7000D40100205C01002000F8FF45840700201C
:100B8000AC070020F0B58BB007460C4615461E4654
:100B90000121022001F098F80121480601F0A4F893
:100BA0004FF44070099002208DF8280000208DF845
:100BB0002A0003208DF8290000208DF82B0009A9B8
:100BC0002B4800F09AFE09220821294800F0DDFE9A
:100BD00009221146264800F0D8FE00208DF81E009C
:100BE0008DF81F008DF8200001208DF821000020D5
:100BF0008DF822008DF823008DF81A008DF81B70F7
:100C00008DF81C508DF81D40ADF8186006A91948E4
:100C100000F0C3FA00208DF812008DF813000120B7
:100C20008DF814000020ADF80800ADF80A00ADF80A
:100C30000C00ADF80E00ADF8100001208DF8150085
:100C400002A800F08DF9012202210A4800F09CFA66
:100C500014208DF8040001208DF805008DF80600A1
:100C60008DF8070001A800F0EFFE0BB0F0BD00000A
:100C7000000402400064004010B5044640F2FF103A
:100C80000C49086000200872487208208872002011
:100C9000C872002107480173210A4173847300213F
:100CA000C1730174417481740146034800F077FBFD
:100CB00010BD0000380200200068004070B50446F6
:100CC000002540F207101D490860002048600872A6
:100CD0004872082088722078C872617817480173BA
:100CE000A1784173E17881732179C17361790174CD
:100CF00013480068012803D101211048417402E023
:100D000000210E48417400210C48817401460D48B1
:100D100000F045FB0C49087001E0681C85B20A48E8
:100D20000178084800F0CEFB08B9FF2DF5D1FF2D62
:100D300001DB002070BD0120FCE70000FC01002069
:100D40001C000020006800402000002010B5022197
:100D5000154800F089F930B30221134800F0ACF8CF
:100D6000124A0021104800F0A2FA1048006840F230
:100D7000071188420DD10D490D4802F0F9FE0B48CC
:100D8000407C012802D10B49087002E0002009498B
:100D900008700648006840F20621884203D10349E2
:100DA000054802F09FFE10BD00680040E8010020E9
:100DB000C00100202400002098070020F0B58BB06F
:100DC00007460C4615461E460121022000F07CFF16
:100DD0000121480600F088FF0121880600F084FF09
:100DE0006020099002208DF8280000208DF82A004C
:100DF00003208DF8290000208DF82B0009A92C482C
:100E000000F07BFD09220521294800F0BEFD0922E2
:100E10000621274800F0B9FD00208DF81E008DF84E
:100E20001F008DF8200001208DF8210000208DF892
:100E300022008DF823008DF81A008DF81B708DF8B4
:100E40001C508DF81D40ADF8186006A9194800F037
:100E5000A4F90F208DF8120000208DF81300012056
:100E60008DF814000020ADF80800ADF80A00ADF8C8
:100E70000C00ADF80E00ADF8100001208DF8150043
:100E800002A800F06DF8012202210A4800F07CF966
:100E900040208DF8040002208DF8050001208DF817
:100EA00006008DF8070001A800F0CEFD0BB0F0BDE4
:100EB0000004024000680040B1F5007F3AD00FDC2A
:100EC000202928D006DC01291CD004291DD008299E
:100ED00040D11DE0402921D0B1F5807F3AD126E0F4
:100EE000B1F5004F31D006DCB1F5806F25D0B1F5FA
:100EF000006F2FD124E0B1F5803F12D0B1F5003F53
:100F000028D111E0154A826025E00822C26022E063
:100F10001022C2601FE0082202611CE01022026160
:100F200019E00822426016E01022426013E0042219
:100F3000426010E0042242600DE0042242600AE0B8
:100F4000002282610422426005E0002282610422C4
:100F5000426000E000BF00BF7047000001010100D7
:100F600010B50021837A012202FA03F13D4A12688A
:100F700042F001023B4B1A603A4A1C3212688A4323
:100F8000384B1C331A60027BCAB9364A0C321268DD
:100F90008A43344B0C331A604288C38842EA0343C5
:100FA000304A4032847A42F834300288838842EAF8
:100FB00003432C4A4032847A02EBC4025360027B22
:100FC000012A19D1274A0C3212680A43254B0C33E7
:100FD0001A604288038842EA0343224A4032847AF4
:100FE00042F83430C288838842EA03431D4A4032C3
:100FF000847A02EBC4025360C27A3AB9194A121DCC
:1010000012688A43174B1B1D1A6006E0154A121D11
:1010100012680A43134B1B1D1A60028932B9114A28
:10102000143212688A430F4B14331A600289012A62
:1010300006D10C4A143212680A430A4B14331A6060
:10104000427B012A06D1074A1C3212680A43054B2B
:101050001C331A60034A126822F00102014B1A6025
:1010600010BD00000066004070B504460D46002625
:1010700060692840002871D0B5F5807F5CD010DC15
:10108000082D35D006DC012D20D0022D24D0042DD2
:1010900072D127E0102D31D0202D35D0402D6BD1CD
:1010A00038E0B5F5004F60D009DCB5F5007F49D0D8
:1010B000B5F5806F4CD0B5F5006F5DD14FE0B5F55B
:1010C000803F2DD0B5F5003F56D12FE0A0682D49C7
:1010D00000F048FA064651E0E068032100F042FAC9
:1010E00006464BE0E068082100F03CFA064645E081
:1010F000E068102100F036FA06463FE0206903213F
:1011000000F030FA064639E02069082100F02AFA9A
:10111000064633E02069102100F024FA06462DE04F
:101120006068082100F01EFA064627E0606810217A
:1011300000F018FA064621E0A069012100F012FA39
:1011400006461BE0A069022100F00CFA064615E0F5
:10115000A069042100F006FA06460FE00FE0A0693E
:10116000702100F0FFF9064608E06068042100F0F5
:10117000F9F9064602E0FFE7002600BF00E000267E
:10118000304670BD010101001AB143690B43436150
:1011900002E043698B434361704730B5024600204B
:1011A0000023146824F002041460146844F001045D
:1011B000146000E05B1C546804F001041CB94FF695
:1011C000FF74A342F6D1546804F001040CB9002066
:1011D0006CE08C79012C04D1146844F08004146014
:1011E00003E0146824F080041460CC79012C04D14D
:1011F000146844F04004146003E0146824F04004D0
:1012000014600C7A012C04D1146844F0200414609A
:1012100003E0146824F0200414604C7A012C04D1FB
:10122000146844F01004146003E0146824F01004FF
:1012300014608C7A012C04D1146844F00804146002
:1012400003E0146824F008041460CC7A012C04D163
:10125000146844F00404146003E0146824F00404E7
:1012600014608C78A407CD7844EA05640D7944EACB
:1012700005444D7944EA05540D886D1E2C43D46114
:10128000146824F001041460002300E05B1C54681F
:1012900004F001041CB14FF6FF74A342F6D1546868
:1012A00004F001040CB1002000E0012030BD10B5B5
:1012B00000F5D87303EB01131B6803F004031372EA
:1012C000137A53B900F5D87303EB01131B6840F28E
:1012D000FF7404EA5353136009E000F5D87303EB7D
:1012E00001131B686FF0604404EAD303536000F5F8
:1012F000D87303EB01131B6803F00203537200F56C
:10130000D87303EB01135B6803F00F03937200F5CE
:10131000D87303EB01135B681B0AD37400F5D87311
:1013200003EB01139B68D37200F5D87303EB011331
:101330009B681C0A147300F5D87303EB01139B68B8
:101340001C0C547300F5D87303EB01139B681B0E40
:10135000937300F5D87303EB0113DB68D37300F5C7
:10136000D87303EB0113DB681C0A147400F5D873FF
:1013700003EB0113DB681C0C547400F5D87303EB0A
:101380000113DB681B0E937421B9C36843F020037B
:10139000C36003E0036943F02003036110BD10B58F
:1013A00002460020936803F08063B3F1806F00D1A0
:1013B00010E0936803F00063B3F1006F01D10120E6
:1013C00008E0936803F08053B3F1805F01D10220FD
:1013D00000E00420042874D002F5C07303EB00136E
:1013E0001B6803F0010402F5C07303EB00131C60DB
:1013F0000B7A7BB94B7A0C8843EA445302F5C074EC
:1014000004EB00142468234302F5C07404EB0014B9
:10141000236010E00B7A4C6843EAC4034C7A234300
:1014200002F5C07404EB00142468234302F5C07471
:1014300004EB001423608B7A03F00F038B7202F528
:10144000C07303EB00135B6823F00F0402F5C07355
:1014500003EB00135C6002F5C07303EB00135B68E1
:101460008C7A234302F5C07404EB001463608B7B19
:101470001C064B7B44EA03440B7B44EA0323CC7AEF
:10148000234302F5C07404EB0014A3608B7C1C069C
:101490004B7C44EA03440B7C44EA0323CC7B234388
:1014A00002F5C07404EB0014E36002F5C07303EBB3
:1014B00000131B6843F0010402F5C07303EB001333
:1014C0001C6010BD10B50246002321B1012907D0D0
:1014D00002290FD109E090681D4C00EA04030BE0DB
:1014E00090681C4C00EA040306E090681A4C00EA7D
:1014F000040301E0002300BF00BF184C181BA342E7
:1015000016D007DC83B16FF08060184470B10228F8
:1015100018D111E0B0F5007F10D0114C204448B133
:10152000B0F5003F0ED10BE002230DE000230BE0ED
:10153000002309E0002307E0012305E0012303E085
:10154000012301E0002300BF00BFD8B210BD00009E
:10155000030000040003000800000310000100085D
:101560000001FFF70246002002EA01030BB101204F
:1015700000E000207047000010B52649264800F022
:101580003FF9002844D04FF08151234800F04CF837
:101590002049214800F062F8204800781F49497826
:1015A00040EA0120C0F30A001D4908801B4840782A
:1015B000C0101A49897840EA4110C0F30A0018495E
:1015C00048801648807880111449C97840EA810023
:1015D0001249097940EA8120C0F30A001049888045
:1015E0000E48007940100D49497940EAC110C0F316
:1015F0000A000B49C8800948407900118008087228
:1016000006484079C0F3011048720020054908607F
:1016100010BD000000802010406402404001002006
:10162000C0070020180000200246094B9A4201D250
:10163000084801E00648103801F000531BB1064B82
:101640000B40C36002E0044B0B4083607047000016
:1016500010640240006002407D0F7D0F0246094B7E
:101660009A4201D2084801E00648103801F00053C0
:101670001BB1064B0B40C36002E0044B0B40836080
:101680007047000010640240006002407D0F7D0F33
:1016900021B1026842F00102026003E0026822F018
:1016A0000102026070470000016821F00101016041
:1016B0000021016041608160C160016121214161BF
:1016C0004A49884204D13D21484A103A91608CE051
:1016D00046491831884205D14FF47461434A103AA3
:1016E000916082E041493031884205D14FF4741154
:1016F0003E4A103A916078E03C494831884205D131
:101700004FF07461394A103A91606EE037496031A8
:10171000884204D13649354A103AD16065E03349F0
:101720007831884204D13349304A103AD1605CE0C4
:101730002E499031884204D12F492C4A103AD16069
:1017400053E02A49A831884205D14FF03D51274A3C
:10175000103AD16049E02949884204D13D21274A05
:10176000083A116041E025491831884205D14FF40B
:101770007461224A083A116037E0204930318842CA
:1017800005D14FF474111D4A083A11602DE01B4930
:101790004831884205D14FF07461184A083A116007
:1017A00023E016496031884204D11149134A121FBF
:1017B00011601AE011497831884204D10D490F4A6D
:1017C000121F116011E00D499031884204D10A497D
:1017D0000A4A121F116008E00849A831884204D162
:1017E0004FF03D51054A121F1160704710600240D2
:1017F0003D000020400F002000003D20106402400A
:1018000070B50246002000240025124EB24201D2DB
:10181000114B01E00F4B103B104E0E4036B11E260F
:1018200006EAD124166806EA040502E0566906F0C5
:10183000800501F000560EB15C6800E01C68084E9F
:10184000344004EA010616B10DB1012000E0002089
:1018500070BD000010640240006002403C0F3C0F6D
:101860007D0F7D0F10B501F080034BB122B14369AC
:1018700043F08003436103E0436923F08003436145
:1018800080290BD02AB1036801F01E0423430360B2
:1018900004E0036801F01E04A343036010BD0000D0
:1018A00010B500220268134B1A40CC680B68234322
:1018B0004C6923438C692343CC6923430C6A23433B
:1018C0004C6A23438C6A23434C6B23438C6B234326
:1018D0001A430260426922F00702D1E90B34234324
:1018E0001A4342610B6943604B6883608B68C36035
:1018F00010BD00003F801CF07047F0B50A46002183
:101900000023002400BF3DE0012505FA01F315681E
:1019100005EA03049C4234D105684F000326BE400B
:10192000B543056015794E00B5400668354305603E
:101930001579012D02D01579022D16D185684F0039
:101940000326BE40B543856055794E00B540866894
:1019500035438560456801268E40B543456045683E
:1019600096798E40B6B235434560C5684F00032670
:10197000BE40B543C560D5794E00B540C668354315
:10198000C560491C1029BFD3F0BDF0B50023002469
:101990004D07ED0E02FA05F3CE1000F1200555F8C3
:1019A00026504E07F70E0F26BE40B543CF1000F16C
:1019B000200646F82750CE1000F1200555F8265095
:1019C00045EA0304CE1000F1200545F82640F0BD9D
:1019D0000183704700BFFEE71CB50121042000F021
:1019E00073F90420009000208DF8060001208DF886
:1019F000040003208DF8050001208DF807006946DA
:101A00000E48FFF77AFF04210C48FFF7E1FF08209A
:101A1000009000208DF8060001208DF804000320BE
:101A20008DF8050001208DF8070069460348FFF78F
:101A300064FF08210148FFF7CBFF1CBD00080240EE
:101A400000BFFEE77047000070B5002100230F22A1
:101A5000C4781CB3174C246804F4E064C4F5E06453
:101A6000C4F30721C1F10404E3B20A4144789C4065
:101A7000E1B28478144021430C07210E0E4C057806
:101A80006155047804F01F050124AC4005786D1100
:101A9000AD0005F1E025C5F8004109E0047804F047
:101AA0001F050124AC40054D0678761145F8264007
:101AB00070BD00000CED00E000E400E080E100E01B
:101AC00002490143024A1160704700000000FA0514
:101AD0000CED00E0B0EE401A90ED100A80ED110A16
:101AE00090ED0F0A80ED100AC0ED060A80ED071A8E
:101AF00030EEC10A80ED0F0A90ED010AD0ED0F1A09
:101B000020EE210A80ED090A90ED0A0AD0ED021AB2
:101B100090ED0F2A01EE820A80ED0A0A90ED0D0A7F
:101B200080ED0E0A90ED0C0A80ED0D0A90ED0F0A83
:101B3000D0ED101A30EE610A80ED0C0A90ED030A28
:101B4000D0ED0C1A20EE210A80ED0B0A90ED0A0A66
:101B5000D0ED051AB4EEE10AF1EE10FA04DD90EDD5
:101B6000050A80ED0A0A10E090ED0A0AD0ED051A88
:101B7000F1EE611AB4EEE10AF1EE10FA05D290ED41
:101B8000050AB1EE400A80ED0A0A90ED090AD0ED8F
:101B90000A1A30EE210AD0ED0B1A30EE210A80ED40
:101BA000080A90ED080AD0ED041AB4EEE10AF1EE4D
:101BB00010FA04DD90ED040A80ED080A10E090EDC3
:101BC000080AD0ED041AF1EE611AB4EEE10AF1EE62
:101BD00010FA05D290ED040AB1EE400A80ED080A31
:101BE00090ED080A7047000080ED010AC0ED020A7E
:101BF00080ED031AC0ED041A80ED052ADFED0C2AF2
:101C0000C0ED0E2AC0ED0D2AC0ED0C2ADFED082A2A
:101C1000C0ED082AC0ED0B2AC0ED0A2AC0ED092A42
:101C2000C0ED112AC0ED102AC0ED0F2A7047000048
:101C30000000000002680B68D21AB2F5805F04DD74
:101C40000A6802F500520A6009E002680B68D21ABD
:101C500012F5805F03DA0A68A2F500520A60704745
:101C600090ED000AD1ED000A30EE600ADFED120AB5
:101C7000B4EEE00AF1EE10FA08DD91ED000ADFEDB6
:101C80000F0A30EE200A81ED000A14E090ED000A00
:101C9000D1ED000A30EE600ADFED090AB4EEE00A89
:101CA000F1EE10FA07D291ED000ADFED040A30EEF2
:101CB000600A81ED000A70470000E14400006145C0
:101CC0000000E1C47047000029B1064A12680243CF
:101CD000044B1A6004E0034A12688243014B1A6005
:101CE000704700003038024029B1064A12680243AA
:101CF000044B1A6004E0034A12688243014B1A60E5
:101D0000704700004038024029B1064A1268024379
:101D1000044B1A6004E0034A12688243014B1A60C4
:101D2000704700002038024029B1064A1268024379
:101D3000044B1A6004E0034A12688243014B1A60A4
:101D4000704700004438024029B1064A1268024335
:101D5000044B1A6004E0034A12688243014B1A6084
:101D60007047000024380240F0B500210022002412
:101D7000022500260223324F3F6807F00C0121B1F3
:101D8000042905D0082937D105E02E4F076036E039
:101D90002D4F076033E02A4F3F1F3F68C7F380563F
:101DA000274F3F1F3F6807F03F036EB1264FB7FB39
:101DB000F3F7DFF88CC0ACF1040CDCF800C0CCF316
:101DC000881C07FB0CF40CE01E4FB7FBF3F7DFF8A1
:101DD00070C0ACF1040CDCF800C0CCF3881C07FB2D
:101DE0000CF4174F3F1F3F68C7F301477F1C7D006E
:101DF000B4FBF5F7076002E0124F076000BF00BFB9
:101E00000F4F3F6807F0F0010909104F7A5C07682F
:101E1000D74047600A4F3F6807F4E051890A0B4FEB
:101E20007A5C4768D7408760054F3F6807F4604198
:101E3000490B064F7A5C4768D740C760F0BD000089
:101E4000083802400024F40040787D0101000020A1
:101E500000B58FB001214148FFF736FF0121102066
:101E6000FFF762FF07220A213D48FFF78EFD4FF47E
:101E700080600D9002208DF8380000208DF83A0027
:101E800003208DF8390000208DF83B000DA934485F
:101E9000FFF733FD334800F0ABF9334809900020D9
:101EA000ADF82800ADF82A004FF48060ADF82C00A2
:101EB0000420ADF82E000020ADF8300009A9294813
:101EC00000F05EFA0121274800F07DF9012240214F
:101ED000244800F084F93A208DF8380001208DF86C
:101EE00039008DF83A008DF83B000EA8FFF7ACFDE5
:101EF0001E48FFF7D9FB4FF0006000901948001D05
:101F000001901B48029000200390122004900020B2
:101F100005904FF4806006900020079008904FF4E1
:101F2000807009904FF440300A9000200B900C9084
:101F30000D900E9069460D48FFF7B2FC012210216A
:101F40000A48FFF78FFC00210848FFF7A1FB012199
:101F50000648FFF79DFB0FB000BD000001004000E8
:101F60000000024000100140A086010040640240D1
:101F700040010020704700000CB500200190009047
:101F80003448006840F480303249086000BF31486E
:101F9000006800F4003000900198401C0190009807
:101FA00018B90198B0F5A04FF1D12A48006800F4A3
:101FB000003010B10120009001E000200090009856
:101FC000012846D123484030006840F08050214924
:101FD000403108602048006840F440401E490860D5
:101FE0001C48083000681B49083108600846006832
:101FF00040F4004008600846006840F4A0500860C3
:102000001648091F0860081F006840F08070091F0B
:10201000086000BF0F48006800F000700028F9D089
:1020200040F205700E4908600A480830006820F048
:1020300003000849083108600846006840F00200C3
:10204000086000BF03480830006800F00C00082852
:10205000F8D10CBD00380240007000401954400710
:10206000003C0240042808D14FF0E021096941F00A
:1020700004014FF0E022116107E04FF0E02109690F
:1020800021F004014FF0E022116170477047000019
:1020900010B51548006840F47000134908601348F3
:1020A000006840F001001149086000200F49083124
:1020B00008600E4800680E4908400C4908600D4849
:1020C000091D0860081F006820F48020091F0860AF
:1020D000002006490C310860FFF74EFF4FF000600A
:1020E00001498039086010BD88ED00E000380240E9
:1020F000FFFFF6FE1030002410B540F225510448D1
:1021000000F0EEF818B1024800880148808810BD40
:102110000050004010B540F22551224800F0E0F890
:1021200038B340F225511F4800F044F81D4800F034
:1021300091F900B21C491D4AB2F9002021F81200A1
:102140001A480088401C00B2184908800846B0F9B7
:102150000000292806DB1649134802F0B3F80020D6
:1021600012490880104800885A2803D000200F49DF
:1021700008800AE00C48B0F90200A52805D00A48FA
:10218000408810B10020094908804FF45871054873
:1021900000F0A6F820B14FF45871024800F00AF898
:1021A00010BD000000140140E8070020E2000020FC
:1021B000D407002001F40072B2F5007F00D100BF07
:1021C000CA430280704721B1828942F40052828161
:1021D00004E082894DF6FF731A40828170471AB17C
:1021E000838A0B43838202E0838A8B438382704716
:1021F00010B504463248844208D101211020FFF76F
:10220000A3FD00211020FFF79FFD57E02D488442D9
:1022100009D101214804FFF777FD00214FF4003078
:10222000FFF772FD4AE02848844209D10121880461
:10223000FFF76AFD00214FF48020FFF765FD3DE0C8
:102240002248844209D10121C804FFF75DFD002125
:102250004FF40020FFF758FD30E01D48844209D1BB
:1022600001210805FFF750FD00214FF48010FFF712
:102270004BFD23E01748844208D101212020FFF7BD
:1022800063FD00212020FFF75FFD17E01248844224
:1022900009D101218807FFF737FD00214FF0804069
:1022A000FFF732FD0AE00D48844207D101214005C5
:1022B000FFF72AFD00216005FFF726FD10BD000095
:1022C000001001400044004000480040004C004025
:1022D000005000400014014000780040007C0040A5
:1022E00070B50246002400230025002040F66A163F
:1022F000B14200D100BFC1F3421501F01F03012616
:1023000006FA03F3012D02D19689334006E0022D2F
:1023100002D1168A334001E0968A33400C1201261E
:1023200006FA04F41688344013B10CB1012000E021
:10233000002070BDF0B503460024002600250020D3
:1023400040F66A17B94200D100BF1846C1F34214E3
:1023500001F01F06012707FA06F5012C01D10C3008
:1023600004E0022C01D1103000E014301AB10768EB
:102370002F43076002E00768AF430760F0BD00002D
:102380002DE9FF4705460E460024A14600BFA046A2
:10239000B08900B100BF2C8A24F44054F088044373
:1023A0002C82AC8941F20C608443B08831890843A7
:1023B000718908430443AC81AC8A24F44074B08929
:1023C0000443AC826846FFF7CFFC2048854202D028
:1023D0001F48854202D1DDF80C9001E0DDF808903D
:1023E000A88900F4004040B109EBC90000EB0910D6
:1023F00031684900B0FBF1F707E009EBC90000EBD9
:10240000091031688900B0FBF1F76420B7FBF0F0E8
:1024100004012009642101FB1078A88900F4004020
:1024200040B1322000EBC800B0FBF1F000F0070033
:10243000044308E0322000EB08106421B0FBF1F007
:1024400000F00F0004432C81BDE8FF87001001401D
:102450000014014001468888C0F30800704700BF9F
:10246000FEE703B401984100009850EAC12018BF6C
:1024700004204A0D18BF40F0010040F2FF72B2EB99
:10248000515F08BF40F00200012808BF052002B0DC
:10249000704700000000000010B52F499FED2C1B75
:1024A0002DED020B84B0059820F000408842D8BF83
:1024B0009DED040B2DDD2949884209D1049840B9CE
:1024C0004FF0010000F0D4FC00F0A2FC06B010BDFB
:1024D00005DB9DED040B00F08FFC06B010BD6846D7
:1024E0009DED040B00F0A0F810F0030004BF9DED7B
:1024F000021B9DED000B0CD001280ED09DED021BA0
:102500009DED000B022817D0012000F0DDFB06B086
:1025100010BD00F0A5FA06B010BD9DED021B9DEDAB
:10252000000B012000F0D0FB51EC100B81F00041BA
:1025300006B041EC100B10BD00F092FA51EC100BFC
:1025400081F0004106B041EC100B10BD000000000E
:102550000000000000000000FB21E93F0000F07FC8
:1025600010B52F499FED2C1B2DED020B84B0059863
:1025700020F000408842DCBF00209DED040B32DDDE
:102580002849884209D1049840B94FF0010000F071
:102590006FFC00F03DFC06B010BD05DB9DED040BAB
:1025A00000F02AFC06B010BD68469DED040B00F05B
:1025B0003BF810F0030011D0012818D09DED021B4C
:1025C0009DED000B02281AD000F04AFA51EC100BD6
:1025D00081F0004106B041EC100B10BD9DED021BD7
:1025E0009DED000B012000F06FFB06B010BD9DEDCE
:1025F000021B9DED000B00F033FA06B010BD012068
:1026000000F062FB51EC100B81F0004106B041EC90
:10261000100B10BD000000000000000000000000D2
:10262000FB21E93F0000F07F2DE9F14F04462DED3D
:10263000020B2DED088B8AB09FEDE70B80ED020BAE
:10264000139EE74826F0004585420ADC9DED120BFB
:10265000002084ED000B0AB0BDEC088B03B0BDE890
:10266000F08FE0489FEDE0AB9FEDE1BBA84247DD76
:10267000E14F9FEDE39B9FEDE48B9DED120B53EC3F
:102680001A2B51EC100B002E1CDDFDF73CFE41EC2B
:10269000100BBD4208D053EC1B2B51EC100BFDF777
:1026A00032FEC4E900010BE053EC192B51EC100B86
:1026B000FDF729FE53EC182BFDF725FEC4E90001B8
:1026C0000120C8E7FDF77EFD41EC100BBD4208D0AC
:1026D00053EC1B2B51EC100BFDF774FDC4E900010A
:1026E0000BE053EC192B51EC100BFDF76BFD53EC89
:1026F000182BFDF767FDC4E900014FF0FF30AAE792
:10270000C348A84279DB9DED120B51EC100B01F090
:10271000DDF941EC180B9FEDC00B53EC102BFDF7CE
:10272000F8FD9FEDBF1B53EC112BFDF74BFDFDF7A3
:10273000F5FF0746FDF7D4FF41EC190B53EC1A2BBC
:10274000FDF7E7FD53EC182BFDF7E0FD41EC180B0E
:1027500053EC1B2B51EC190BFDF7DBFDDFF8C8A286
:1027600041EC100B4FEA15580125FA4453EC102B9D
:1027700051EC180BFDF7C7FD032DC4E900013DD056
:10278000C1F30A5005EB4511A8EB00001139814255
:1027900034DA0AEB051BB0EE48AA9BED000BF0EE15
:1027A00068AA53EC102B51EC190BFDF7B2FD41EC6C
:1027B0001B0B51EC1A0B53EC1B2BFDF7A4FD41EC4A
:1027C000180B51EC1A0B53EC182BFDF79CFD53EC36
:1027D0001B2BFDF798FD9BED020B41EC1A0B53EC04
:1027E000102B51EC190BFDF794FD53EC1A2BFDF750
:1027F0008AFD41EC100B6D1CB8E70EE0002EA8BF5F
:102800003846BFF628AF94ED000B51EC100B81F069
:102810000041C4E9000178421DE7C6F3130040F40B
:10282000801EC6F30A50A0F2F530471100F01F05D4
:10283000C5F12000DDF848B0089000200690079010
:102840000520EC467949002D07EB0002794408BFCA
:1028500051F8221009D051F8223001EB8201AB402F
:102860004A68089922FA01F11943A1FB0E26A1FB3F
:102870000B131A449A4234BF0123002303EB0608CA
:102880000CEB8003D3E901A60E448E4234BF012134
:10289000002192448A4411B1924502D903E0924545
:1028A00001D2012100E00021C3E901A641444CF816
:1028B0002010011EA0F10100C4DC029800F10050BC
:1028C000850F0298DDE903678000DDF81480FDF7CD
:1028D00007FF41EC1A0B3046FDF713FF9FED541B29
:1028E00053EC112BFDF715FD41EC1B0B3846FDF7A2
:1028F00008FF9FED511B53EC112BFDF70AFD41EC36
:10290000180B4046FDF7FDFE9FED4D1B53EC112BC0
:10291000FDF7FFFC41EC190B51EC180B53EC192B94
:10292000FDF750FC53EC1B2BFDF74CFC53EC1A2B22
:10293000FDF748FCCDE90801002008909DED080B4B
:1029400053EC1A2B51EC100BFDF7DDFC53EC1B2B59
:10295000FDF7D9FC53EC182BFDF7D5FC53EC192BE4
:10296000FDF7D4FC9FED381B53EC112BFDF7D1FC88
:102970009FED370B41EC180B53EC102B9DED080B22
:1029800051EC100BFDF7C5FC53EC182BFDF71AFCAE
:102990009FED310B41EC180B53EC102B9DED080B08
:1029A00051EC100BFDF7B5FC53EC182BFDF70AFCAE
:1029B00041EC100B139810F0004F06D06D4251EC13
:1029C000100B81F0004141EC100B284684ED000B08
:1029D00041E60000000000000000000000000000D0
:1029E000FB21E93F7CD9024000004054FB21F93F24
:1029F0003163621A61B4D03DFB21F93F0000000051
:102A00000000601A61B4D03D7370032E8A19A33B95
:102A1000FB2139410000000083C8C96D305FE43FED
:102A2000000000000000E03FDA2000002820000045
:102A3000000000000000103E000000000000103CFC
:102A4000000000000000103A182D4454FB21F93D0D
:102A50003326A611460B113C00000054FB21F93D22
:102A600010B52DED040B2DED088B82B0B0EE419A20
:102A7000F0EE619A0B9820F000449FED4BABB4F15F
:102A8000795F11DA9DED0A0B51EC100BFDF746FE54
:102A9000002801BFB0EE4A0AF0EE6A0A02B0BDECAF
:102AA000088B04BF04B010BD9DED0A0B53EC102B36
:102AB00051EC100BFDF72DFC41EC180B3C480621A6
:102AC000B0EE480AF0EE680A784400F081F853EC62
:102AD000182B51EC100BFDF71CFC9DED0A0B41EC83
:102AE0001B0B53EC192B51EC100BFDF712FC41ECB6
:102AF000190B53EC1B2B51EC180BFDF70AFC53EC94
:102B0000192BFDF700FC9FED2C0B41EC190B53EC3E
:102B1000102B51EC180BFDF7FCFB41EC100B284877
:102B2000844210DA53EC192B51EC100BFDF7EBFB40
:102B300053EC1A2BFDF7EAFB41EC100B02B0BDEC95
:102B4000088B04B010BD1F48A042BCBF9FED1E1BE8
:102B50008DED001B06DBA4F5001001900020009015
:102B60009DED001B51EC100B53EC112BFDF7CBFB33
:102B70009DED000B41EC180B53EC102B51EC1A0B94
:102B8000FDF7C1FB41EC1A0B53EC192B51EC180B60
:102B9000FDF7B9FB53EC1A2BFDF7B8FB41EC100B1A
:102BA000CCE7000000000000000000000000F03F43
:102BB0004C1D000000000000000000000000E03F8D
:102BC0003333D33F0000E93F000000000000D23F54
:102BD00070B504462DED028B4D1E00EBC500B0EE26
:102BE000408AF0EE608A90ED000B35F0060017D0B9
:102BF00053EC182B51EC100BFDF78BFB41EC100B39
:102C00006D1E04EBC50090ED001B51EC100B53EC56
:102C1000112BFDF7D7FA41EC100B35F00600E7D188
:102C2000022D36D0042D1CD0062D1CBFBDEC028B0E
:102C300070BD53EC182B51EC100BFDF76AFB94EDB3
:102C40000A1B53EC112BFDF7BDFA53EC182BFDF7C3
:102C500060FB94ED081B53EC112BFDF7B3FA41EC2C
:102C6000100B53EC182B51EC100BFDF752FB94EDAD
:102C7000061B53EC112BFDF7A5FA53EC182BFDF7AF
:102C800048FB94ED040B53EC102BFDF79BFA41EC41
:102C9000100B53EC182B51EC100BFDF73AFB94ED95
:102CA000021B53EC112BFDF78DFA53EC182BFDF79B
:102CB00030FB94ED001B53EC112BFDF783FABDECB8
:102CC000028B41EC100B70BD31B504462DED040BA9
:102CD0002DED0A8BB0EE41BAF0EE61BA0B989DED86
:102CE0000A0B20F00040B0F1795F0DDA51EC100BC7
:102CF000FFF7B7FB042808BF00F09AF89DED0A0B18
:102D0000BDEC0A8B05B030BD53EC102B51EC100B11
:102D1000FDF7FFFA41EC180B9DED0A0B53EC182B55
:102D200051EC100BFDF7F5FA41EC190B2C48B0EE05
:102D3000480AF0EE680A05217844FFF749FF9FED45
:102D40002ACBB0EE40AAF0EE60AA9CB353EC1C2B49
:102D500051EC190BFDF7DDFA41EC1C0B53EC1A2B6F
:102D600051EC190BFDF7D5FA9FED210B41EC190B36
:102D700053EC102B51EC1B0BFDF7CBFA53EC192B3A
:102D8000FDF7C1FA53EC182BFDF7C3FA53EC1B2BDC
:102D9000FDF7B9FA53EC1C2BFDF7B5FA9DED0A1BB4
:102DA00053EC112BFDF7B2FABDEC0A8B05B041ECE8
:102DB000100B30BDFFE753EC1A2B51EC180BFDF74D
:102DC000A8FA53EC1C2BFDF7FDF953EC192BFDF77A
:102DD000A0FA9DED0A1B53EC112BFDF7F3F9E3E785
:102DE000D41B000000000000495555555555C5BF7E
:102DF000000000000000E03F10B553EC102B51EC38
:102E0000100BFDF7DFF941EC100B10BD00000000C6
:102E10009FED050B10B553EC102B51EC100BFDF78B
:102E2000EAFA41EC100B10BD0000000000000000A9
:102E30009FED050B10B553EC102B51EC100BFDF76B
:102E400068FA41EC100B10BD0000000000000010FB
:102E500002E008C8121F08C1002AFAD17047704763
:102E6000002001E001C1121F002AFBD170470000C1
:102E700001490860704700003C01002010B59FED3B
:102E8000622ADFED621A624890ED001A6148D0EDC7
:102E9000000A614890ED000A6048FEF7A5FE9FED2C
:102EA0005A2ADFED5A1A5E4890ED001A5D48D0EDBF
:102EB000000A5D4890ED000A5C48FEF795FE9FED24
:102EC000522ADFED5B1A5B4890ED001A5A48D0EDAC
:102ED000000A5A4890ED000A5948FEF785FE9FED1A
:102EE0004A2ADFED531A534890ED001A5248D0EDAC
:102EF000000A524890ED000A51484830FEF774FE2F
:102F00009FED412ADFED4A1A4A4890ED001A4A48DF
:102F1000D0ED000A494890ED000A49489030FEF78C
:102F200063FE9FED392ADFED421A424890ED001A08
:102F30004148D0ED000A414890ED000A4048D830A1
:102F4000FEF752FE9FED302ADFED391A3D4890ED35
:102F5000001A3D48D0ED000A3C4890ED000A3C487C
:102F6000FEF742FE9FED282ADFED311A354890ED3D
:102F7000001A3548D0ED000A344890ED000A344874
:102F80004830FEF731FE9FED202ADFED291A2D484B
:102F900090ED001A2C48D0ED000A2C4890ED000A64
:102FA0002B489030FEF720FE9FED172ADFED201A08
:102FB000244890ED001A2448D0ED000A234890EDF3
:102FC000000A2348D830FEF70FFEFEF705FD032365
:102FD000052206210020FDF7D5FD03230522062149
:102FE0000020FDF7EBFE1B480088042803D14FF4B6
:102FF000A0501949086017480088032802D1002012
:1030000015490860002010BD00409C450050C34693
:103010004C00002048000020440000201C05002037
:1030200058000020540000205000002064050020BB
:103030000000804634000020300000202C000020DA
:1030400094020020400000203C00002038000020B6
:10305000FC030020780000202800002010B52DED92
:10306000108BFE48007A032855D1FC48C088A0F593
:10307000806000EE100AB8EEC00A9FEDF91AC0EEAB
:10308000010A9FEDF80A20EE800AF74880ED000A59
:10309000F2488088A0F5806000EE100AF8EEC00AC1
:1030A0009FEDEF1A80EE810ADFEDEE0A20EE200A96
:1030B000EE4880ED000AEE48B0F90000ED490860E6
:1030C000ED48FEF7B7FDEC4890ED000AF8EEC00AB7
:1030D000E84890ED000AB8EEC00AE848FEF7FAFCAE
:1030E000B0EE408AE248B0F9020000EE900AF8EE35
:1030F000E00AB0EE600AF0EE480AE148FEF7EAFCAA
:103100009FEDE01AC0EE010A9FEDDF0A20EE800A73
:10311000DE4880ED000AD148007A01280ED19FEDEB
:10312000DC0AD14880ED000A9FEDD90ACF4880ED36
:10313000000A9FEDD70AD54880ED000AC748007AFB
:1031400002287CD19FEDC70AD04880ED000AD14803
:103150000088042874D1C648B0F9000000EE100AB7
:10316000B8EEC00ADFEDCC0A30EEC00A10EE101A3D
:103170000846FDF7AFF941EC1F0B9FEDC80B53EC70
:10318000102BFDF7C6F841EC1E0B9FEDC60B53EC60
:10319000102BFDF730F941EC1D0BB0EE4D0AF0EEAF
:1031A0006D0AFFF7DDF9B0EE40BAF0EE60BAAB4859
:1031B000808800EE100AB8EE400ADFEDBC0A30EE5F
:1031C000600A9FEDA71AC0EE010A9FEDA60A20EE45
:1031D000800A10EE104A2046FDF77CF941EC1C0BEA
:1031E00053EC1B2BFDF795F841EC190BA048B0F9F7
:1031F000000000EE100AB8EEC00ADFEDA70A30EEBC
:10320000C00A10EE101A0846FDF764F941EC1F0BD6
:103210009FEDA20B53EC102BFDF77BF841EC1E0B3E
:103220009FEDA00B53EC102BFDF7E5F841EC1D0BC7
:10323000B0EE4D0AF0EE6D0AFFF72EF901E00CE159
:10324000CCE0B0EE40BAF0EE60BA8448C08800EE40
:10325000100AB8EE400ADFED950A30EE600A9FEDE5
:10326000801AC0EE010A9FED7F0A20EE800A10EE60
:10327000104A2046FDF72EF941EC1C0B53EC1B2B9A
:10328000FDF747F841EC1A0B53EC192BFDF73BF80F
:1032900041EC180BFDF731F9734908607448B0F937
:1032A000000000EE100AB8EEC00ADFED7B0A30EE37
:1032B000C00A10EE101A0846FDF70CF941EC1F0B7E
:1032C0009FED760B53EC102BFDF723F841EC1E0B12
:1032D0009FED740B53EC102BFDF78DF841EC1D0B9B
:1032E000B0EE4D0AF0EE6D0AFFF7D6F8B0EE40BA38
:1032F000F0EE60BA5948808800EE100AB8EE400A35
:10330000DFED6A0A70EE600A9FED551A80EE810AC1
:10331000DFED540A20EE200A10EE104A2046FDF799
:10332000D9F841EC1C0B53EC1B2BFCF7F2FF41ECE2
:10333000190B4F48B0F9000000EE100AB8EEC00AB1
:10334000DFED550A30EEC00A10EE101A0846FDF700
:10335000C1F841EC1F0B9FED510B53EC102BFCF708
:10336000D8FF41EC1E0B9FED4F0B53EC102BFDF7DC
:1033700042F841EC1D0BB0EE4D0AF0EE6D0AFFF77E
:10338000EFF8B0EE40BAF0EE60BA3448C08800EE14
:10339000100AB8EE400ADFED450A70EE600A9FEDB4
:1033A000301A80EE810ADFED2F0A20EE200A10EE9F
:1033B000104A2046FDF78EF841EC1C0B53EC1B2BFA
:1033C000FCF7A7FF41EC1A0B53EC192BFCF7FAFEA4
:1033D00041EC180BFDF791F8244908602D4800884E
:1033E00003283AD12248B0F9000000EE100AB8EEE6
:1033F000C00ADFED270A30EEC00A10EE101A0846A8
:10340000FDF768F841EC1F0B9FED240B53EC102BDC
:10341000FCF77FFF41EC1E0B9FED220B53EC102BB2
:10342000FCF7E9FF41EC1D0BB0EE4D0AF0EE6D0A22
:10343000FFF796F8B0EE40BAF0EE60BA0748808821
:1034400000EE100AB8EE400ADFED180A30EE600A0E
:10345000DFED030A80EE201A2AE02FE1C0010020F0
:103460000000254400803B456400002060000020EF
:103470009807002074000020280000206405002028
:103480001C0500200050C34600C05A4568000020BB
:10349000000000007800002000C0A1454AD8124D6D
:1034A000FB2119400000000000FFBF4000008044E5
:1034B0001FED140A21EE000A10EE104A2046FDF717
:1034C00009F841EC1C0B53EC1B2BFCF722FF41ECE1
:1034D000190BFE48B0F9000000EE100AB8EEC00A61
:1034E0005FED150A30EEC00A10EE101A0846FCF720
:1034F000F1FF41EC1F0B1FED170B53EC102BFCF7EA
:1035000008FF41EC1E0B1FED190B53EC102BFCF7C1
:1035100072FF41EC1D0BB0EE4D0AF0EE6D0AFEF7A6
:10352000BBFFB0EE40BAF0EE60BAE948C08800EEEA
:10353000100AB8EE400A5FED230A30EE600A5FED34
:10354000380A80EE201A1FED390A21EE000A10EE2B
:10355000104A2046FCF7BEFF41EC1C0B53EC1B2B22
:10356000FCF7D7FE41EC1A0B53EC192BFCF7CBFE02
:1035700041EC180BFCF7C1FFD6490860D348B0F9FD
:10358000000000EE100AB8EEC00A5FED3F0A30EE10
:10359000C00A10EE101A0846FCF79CFF41EC1F0B06
:1035A0001FED420B53EC102BFCF7B3FE41EC1E0B4E
:1035B0001FED440B53EC102BFCF71DFF41EC1D0BD2
:1035C000B0EE4D0AF0EE6D0AFEF766FFB0EE40BABF
:1035D000F0EE60BABE48808800EE100AB8EE400AED
:1035E0005FED4E0A30EE600A1FED631AC0EE010A6D
:1035F0001FED640A20EE800A10EE104A2046FCF708
:1036000069FF41EC1C0B53EC1B2BFCF782FE41ECD9
:10361000190BAE48B0F9000000EE100AB8EEC00A6F
:103620005FED650A30EEC00A10EE101A0846FCF78E
:1036300051FF41EC1F0B1FED670B53EC102BFCF7F8
:1036400068FE41EC1E0B1FED690B53EC102BFCF7D1
:10365000D2FE41EC1D0BB0EE4D0AF0EE6D0AFEF706
:103660007FFFB0EE40BAF0EE60BA9948C08800EE35
:10367000100AB8EE400A5FED730A30EE600A1FEDE3
:10368000881AC0EE010A1FED890A20EE800A10EEAA
:10369000104A2046FCF71EFF41EC1C0B53EC1B2B81
:1036A000FCF737FE41EC1A0B53EC192BFCF78AFDA3
:1036B00041EC180BFCF721FF87490860854890ED25
:1036C000000AB1EE400A8448D0ED000A30EE600AEC
:1036D0008248D0ED000A30EE200A814880ED010AD0
:1036E0007C4890ED000A7C48D0ED000A30EE600A7C
:1036F0007A48D0ED000A30EE200A794880ED020ABF
:10370000744890ED000A7448D0ED000A30EE200AAB
:103710007248D0ED000A30EE200A714880ED030AAD
:103720006C4890ED000AB1EE400A6B48D0ED000AFB
:1037300030EE200A6948D0ED000A30EE200A6848D1
:1037400080ED040A90ED010AB5EEC00AF1EE10FA20
:1037500014D190ED020AB5EEC00AF1EE10FA0DD1C7
:1037600090ED030AB5EEC00AF1EE10FA06D190ED25
:10377000040AB5EEC00AF1EE10FA7CD05948007880
:10378000002878D1564890ED011AF0EE410A5648CB
:10379000B0F9160001EE100AB8EEC11AB0EE410AF7
:1037A0005248FEF797F9BDEEC00A10EE100A00B2BB
:1037B0004F4908804A4890ED021AF0EE410A4A4803
:1037C000B0F92A0001EE100AB8EEC11AB0EE410AB3
:1037D00046484830FEF77EF9BDEEC00A10EE100AEA
:1037E00000B2444908803E4890ED031AF0EE410AC9
:1037F0003D48B0F93E0001EE100AB8EEC11AB0EE35
:10380000410A3A489030FEF765F9BDEEC00A10EE65
:10381000100A00B238490880314890ED041AF0EEE1
:10382000410A3148B0F9520001EE100AB8EEC11A4F
:10383000B0EE410A2D48D830FEF74CF9BDEEC00A73
:1038400010EE100A00B22D4908800846B0F9003089
:103850002948B0F900202748B0F900102448B0F9F1
:103860000000FCF7A7FF204890ED090A244880EDEE
:10387000010A1D4800E011E090ED0E0A204880ED9D
:10388000020A194890ED130A1D4880ED030A1648F4
:1038900090ED180A1A4880ED040AA5E01148007856
:1038A00090BB1148B0F9160000EE900AF8EEE00A5D
:1038B000B0EE600ADFED130A0C48FEF70BF9BDEE1F
:1038C000C00A10EE100A00B209491EE09807002055
:1038D000C00100206400002060000020680000207B
:1038E000AC050020240000205C0100209402002090
:1038F0006C0000206E00002070000020720000208C
:10390000C00500200000000050E008803848B0F9F1
:103910002A0000EE900AF8EEE00AB0EE600A5FEDD1
:10392000070A3448FEF7D6F8BDEEC00A10EE100ABA
:1039300000B2314908802E48B0F93E0000EE900AEE
:10394000F8EEE00AB0EE600A5FED120A294848304E
:10395000FEF7C0F8BDEEC00A10EE100A00B227490B
:1039600008802348B0F9520000EE900AF8EEE00A11
:10397000B0EE600A5FED1D0A1E489030FEF7AAF80F
:10398000BDEEC00A10EE100A00B21D4908800846BC
:10399000B0F900301948B0F900201748B0F900100C
:1039A0001848B0F90000FCF705FF1DE000231A4697
:1039B00019461846FCF7FEFE0D4890ED090A12481C
:1039C00080ED010A0A4890ED0E0A0F4880ED020AC8
:1039D000074890ED130A0C4880ED030A044890ED67
:1039E000180A094880ED040ABDEC108B10BD0000D8
:1039F0005C010020DC0200206E000020700000202E
:103A0000720000206C000020C005002010B50446A4
:103A10006FF00400FEF726FBE11704EB5171C1F3D0
:103A2000C701074A11701046007800EB4001C1EB56
:103A3000C0104FF6FF7101EAC0000249088010BDB6
:103A4000120000201400002070B504464FF40770E7
:103A500094FBF0F0C6B24FF4077094FBF0F100FB5A
:103A6000114085B205E04FF4077000F009F8701EB0
:103A7000C6B2002EF7D115B1284600F001F870BD8E
:103A80000146114A12884A434FF0E0235A6100224E
:103A90009A611A46126942F001021A6100BF4FF0A2
:103AA000E022106900F001021AB100F48032002A0D
:103AB000F5D04FF0E022126922F001024FF0E0232E
:103AC0001A6100229A6170471400002082B0CDE98B
:103AD000000121F0004001909DED000B02B051EC7F
:103AE000100B7047028802810A7BCB7A42EA0322DC
:103AF00012B202808B7B4A7B43EA022212B24280DE
:103B00000B7CCA7B43EA022212B282804A7C827119
:103B1000B0F90020B0F90830D21A12F5805F03DA4C
:103B20004289521C12B24281B0F90020B0F908302B
:103B3000D21AB2F5805F03DD4289521E12B2428171
:103B4000B0F9002000EE102AB8EEC00A9FED071A67
:103B5000C0EE010AB0F90A2000EE102AB8EEC00A41
:103B600030EE800A80ED040A7047000000F8FF453F
:103B7000CB7A0A7B43EA0222C2F30A0202800A7B62
:103B8000D3104A7B43EA4212C2F30A0242804A7BC4
:103B900093118A7B43EA8203CA7B43EA8222C2F3FF
:103BA0000A028280CA7B53100A7C43EAC212C2F323
:103BB0000A02C2800A7C1211920802720A7CC2F3C5
:103BC0000112427270470000028802810A7BCB7AA0
:103BD00042EA032212B202808B7B4A7B43EA022232
:103BE00012B24280B0F90020B0F90830D21A12F5B2
:103BF000805F03DA4289521C12B24281B0F9002080
:103C0000B0F90830D21AB2F5805F03DD4289521E46
:103C100012B24281B0F9002000EE102AB8EEC00ABC
:103C20009FED071AC0EE010AB0F90A2000EE102A33
:103C3000B8EEC00A30EE800A80ED040A704700003A
:103C400000F8FF4510B5FEF703F9FDF7C5FE0323A5
:103C5000052206210020FCF795FF032305220621FB
:103C60000020FDF7ABF800F04BFA9FED412ADFEDA5
:103C7000411A414890ED001A4048D0ED000A4048F2
:103C800090ED000A3F48FDF7AFFF9FED3F2ADFEDC3
:103C9000391A3E4890ED001A3D48D0ED000A3D48E3
:103CA00090ED000A3C48FDF79FFF9FED3C2ADFEDB9
:103CB000311A3B4890ED001A3A48D0ED000A3A48D4
:103CC00090ED000A3948FDF78FFF9FED292ADFEDBF
:103CD000381A384890ED001A3748D0ED000A3748B6
:103CE00090ED000A3648FDF77FFF9FED212ADFEDBA
:103CF000351A354890ED001A3448D0ED000A3448A2
:103D000090ED000A3348FDF76FFF9FED192ADFEDB4
:103D10002D1A314890ED001A3048D0ED000A304895
:103D200090ED000A2F48FDF75FFF01202E49086043
:103D30002E48B0F9080000EE100AB8EEC00A2C4870
:103D400080ED000A2B480088042804D140F68770D3
:103D50002949086007E027480088032803D14FF469
:103D60002A702549086000202449086010BD000021
:103D700000409C450060EA4684000020800000204E
:103D80007C000020D405002000F8FF4590000020B2
:103D90008C000020880000201C06002000803B458D
:103DA0009C00002098000020940000206406002061
:103DB00000606A46A8000020A4000020A0000020A7
:103DC000AC06002000401C46B4000020B0000020DB
:103DD000AC000020F4060020C0000020BC00002041
:103DE000B80000203C070020D4000020D4070020A9
:103DF000D800002078000020D00000208802414236
:103E000010B52DED028BA5484088A0F58060A8B1C3
:103E1000A2484088A0F5806000EE100AF8EEC00AC3
:103E20009FED9F1A80EE810AF0EE000A20EE200A34
:103E3000BDEEC00A9B4880ED000A02E000209949CF
:103E4000086098480068D0B397480068B8BB9748A6
:103E500000689449096808449449086094480088B7
:103E6000042811D10846006841F21711884202DB8C
:103E700008468E4908608D48006840F6AD4188428A
:103E800002DC08468949086089480088032811D166
:103E90008648006840F24C41884202DB084683496C
:103EA00008608248006810F1960F03DC6FF09500FF
:103EB0007E4908607D4800687E4908600DE0FFE7A4
:103EC0007948006820B97B4800687849086004E0B8
:103ED0007948B0F900007749086073480068A0BBD2
:103EE0007548B0F90000754908607048FDF7A2FEFA
:103EF0006E4890ED000AF8EEC00A704890ED000A96
:103F0000B8EEC00A6E48FDF7E5FDB0EE408A6A489B
:103F1000B0F9020000EE900AF8EEE00AB0EE600A96
:103F2000F0EE480A6748FDF7D5FDBDEEC00A10EE79
:103F3000100A00B2644908806448B0F90010624871
:103F4000B0F90000FCF75CFC06E0FFE75F48B0F961
:103F500000100020FCF754FC50480088A0F5806059
:103F600098B14E480088C0F5806000EE100AB8EEA7
:103F7000C00ADFED4B0A80EE201AB0EE000A21EEF7
:103F8000000A534880ED000A04E09FED520A5048B1
:103F900080ED000A4E4890ED000AB5EEC00AF1EE41
:103FA00010FA2CD04C4890ED000A4948D0ED000A98
:103FB00030EE200A484880ED000A90ED000ADFED5F
:103FC000470AB4EEE00AF1EE10FA03DD9FED440A71
:103FD00080ED000A404890ED000ADFED410AB4EEA2
:103FE000E00AF1EE10FA03D29FED3C0A80ED000AE0
:103FF000394890ED000A3B4880ED000A05E0394859
:1040000090ED000A344880ED000A2748006898BB0C
:104010003548B0F9080000EE100AB8EEC00A33487F
:1040200080ED000A01462C48FDF71AFE2A48D0ED23
:10403000000A2E4890ED000A2D48FDF74BFDB0EE2A
:10404000408A2C48B0F9020000EE900AF8EEE00A2F
:10405000B0EE600AF0EE480A2748FDF73BFDBDEEE2
:10406000C00A10EE100A00B2244908800846B0F9D0
:104070000000FCF701FE0DE0FFE70020FCF7FCFD6F
:104080001948B0F9080000EE100AB8EEC00A154849
:1040900080ED000ABDEC028B10BD0000C0070020BF
:1040A00000002544C80000201C000020C40000209F
:1040B00078000020D000002084070020CC000020E1
:1040C0001C060020D4050020E0000020F80000209D
:1040D000E400002000000000E80000200000E144AF
:1040E0000000E1C4D8000020D4070020F400002024
:1040F000AC0600209807002064060020EC00002099
:1041000000B587B001210420FDF7DEFD012120204C
:10411000FDF70AFE082206212E48FDF736FC08228C
:1041200007212C48FDF731FC4020059002208DF836
:1041300018008DF8190000208DF81A0001208DF864
:104140001B0005A92348FDF7D8FB8020059002201D
:104150008DF818008DF8190000208DF81A00012044
:104160008DF81B0005A91B48FDF7C7FB4FF4612024
:1041700001900020ADF80800ADF80A00ADF80C0081
:10418000ADF810000C20ADF80E0001A91248FEF7A2
:10419000F7F8012240F225510F48FEF7CBF8012134
:1041A0000D48FEF710F8012240F225510A48FEF7AB
:1041B000C1F847208DF8000000208DF801008DF82F
:1041C000020001208DF803006846FDF73DFC002049
:1041D00007B000BD0008024000140140A820FFF70E
:1041E00015FC4FF4E13000F0A7FA4FF4A060FDF7A2
:1041F00067FC29480078012802D1FFF723FD04E07D
:104200002548007808B9FEF739FE2448B0F90800BF
:1042100000EE100AB8EEC00A214880ED000A3820EE
:104220002049086036E00120FFF70EFC1A480078AC
:10423000012822D100F03EF8FFF7E2FD00F08AF8F5
:1042400018480068401C1749086008460068322872
:1042500003DD01201449086002E0002012490860D3
:104260001248006828B112480068401C10490860D4
:1042700008E000200E49086004E00748007808B90B
:10428000FEF7ECFE07480068B0F57A7F02DD3320C8
:1042900004490860C7E7000000000020D4070020A0
:1042A000D8000020180000201C0000203801002049
:1042B0003401002010B50248FCF700FD10BD0000DD
:1042C0004001002030F8122F837842EA032212B214
:1042D0001F4BDA818288837942EA032212B21C4B97
:1042E0001A820289837A42EA032212B2184B5A8256
:1042F000C289037C42EA032212B2154B1A80428A19
:10430000037D42EA032212B2114B5A80C28A037E15
:1043100042EA032212B20E4B9A80428D90F82C3062
:1043200042EA032212B20A4BDA80C28D90F8303092
:1043300042EA032212B2064B5A81428E90F8343080
:10434000123842EA032212B2014B1A817047000070
:10435000D407002010B52DED028BE8480068002836
:104360007BD1E748006840F2DC51884267D3E548DA
:1043700090ED040AE44880ED000AE44890ED000A5C
:10438000DFEDE30A30EE600AE24880ED000AD0ED8E
:10439000000ADD4890ED000ADF48FDF79BFBB0EE18
:1043A000408AD848B0F9020000EE900AF8EEE00A20
:1043B000B0EE600AF0EE480AD848FDF78BFBBDEE80
:1043C000C00A10EE100A00B2D54908800846B0F9BC
:1043D0000010D448B0F90000FCF712FACA4890ED7A
:1043E000000ACC48D0ED000A30EE600ADFEDCE0ABC
:1043F000B4EEE00AF1EE10FA1DD8C34890ED000AC1
:10440000C448D0ED000A30EE600ADFEDC80AB4EE11
:10441000E00AF1EE10FA0EDB0020C5490860B84949
:104420000860BA4890ED000ADFEDB90A30EE600A84
:1044300080ED000A5EE10120BD4908605AE1BD48F7
:10444000407A012863D1AF4890ED040AAE4880ED70
:10445000000AAE4890ED000A00E016E1DFEDAC0A7C
:1044600030EE200AAB4880ED000AD0ED000AA648E5
:1044700090ED000AA848FDF72DFBB0EE408AA14858
:10448000B0F9020000EE900AF8EEE00AB0EE600A21
:10449000F0EE480AA148FDF71DFBBDEEC00A10EE84
:1044A000100A00B29E4908800846B0F900109D48E5
:1044B000B0F90000FCF7A4F9934890ED000A954884
:1044C000D0ED000A30EE600ADFED970AB4EEE00AA4
:1044D000F1EE10FA18D88C4890ED000A8D48D0ED16
:1044E000000A30EE600ADFED910AB4EEE00AF1EE68
:1044F00010FA09DB00208E490860824890ED040A1A
:10450000824880ED000A02E001208949086089485C
:10451000407A032858D17B4890ED040A7A4880ED10
:10452000000A7C48D0ED000A774890ED000A7A48EE
:10453000FDF7D0FAB0EE408A7248B0F9020000EE02
:10454000900AF8EEE00AB0EE600AF0EE480A73480E
:10455000FDF7C0FABDEEC00A10EE100A00B27049B5
:1045600008800846B0F900106E48B0F90000FCF76A
:1045700047F9654890ED000A6648D0ED000A30EE34
:10458000600ADFED690AB4EEE00AF1EE10FA18D81D
:104590005D4890ED000A5F48D0ED000A30EE600AF9
:1045A000DFED620AB4EEE00AF1EE10FA09DB00205A
:1045B0005F490860534890ED040A544880ED000AB2
:1045C00002E001205A4908605A48407A022857D12F
:1045D0004C4890ED040A4C4880ED000A4B4890EDA1
:1045E000000ADFED4B0A30EE200A4A4880ED000A4F
:1045F000D0ED000A444890ED000A4748FDF76AFAFA
:10460000B0EE408A3F48B0F9020000EE900AF8EEA2
:10461000E00AB0EE600AF0EE480A4048FDF75AFAA8
:10462000BDEEC00A10EE100A00B23D4908800846EF
:10463000B0F900103B48B0F90000FCF7E1F832484F
:1046400090ED000A3348D0ED000A30EE600ADFED4D
:10465000360AB4EEE00AF1EE10FA12D82A4890EDCC
:10466000000A2C48D0ED000A30EE600ADFED2F0A78
:10467000B4EEE00AF1EE10FA03DB00202C490860EA
:1046800038E001202A49086034E01C48006801280D
:1046900030D11C4890ED040A1B4880ED000A1B48ED
:1046A00090ED000A1B4880ED000AD0ED000A164884
:1046B00090ED000A1848FDF70DFAB0EE408A114857
:1046C000B0F9020000EE900AF8EEE00AB0EE600ADF
:1046D000F0EE480A1148FDF7FDF9BDEEC00A10EEF4
:1046E000100A00B20E49088000210E48B0F90000FF
:1046F000FCF786F8BDEC028B10BD00001C0000200A
:1047000034010020AC070020240100202C010020EF
:1047100066666640280100203C070020F406002061
:10472000F8000020E0000020CDCCCC3DCDCCCCBDAD
:1047300038010020C007002010B588B004460121D0
:104740000D20FDF7C1FA01210805FDF7CDFA082279
:1047500002212E48FDF719F908220C212C48FDF7FB
:1047600014F94FF48050069002208DF81C008DF84B
:104770001D0000208DF81E0001208DF81F0006A9E5
:104780002348FDF7BAF80420069002208DF81C009B
:104790008DF81D0000208DF81E0001208DF81F00EF
:1047A00006A91A48FDF7A9F802940020ADF80C00FC
:1047B000ADF80E00ADF81000ADF814000C20ADF807
:1047C000120002A91348FDF7DBFD012240F225513A
:1047D0001048FDF7AFFD01210E48FDF7F4FC012262
:1047E00040F225510B48FDF7A5FD35208DF804005A
:1047F00002208DF805008DF8060001208DF80700D5
:1048000001A8FDF721F908B010BD0000000C02401E
:1048100000080240005000404C5555555555A53FE5
:104820007751C1166CC156BF9015CB19A001FA3E45
:10483000AD529C804F7E92BEC4B1B4BD9EEE213E6F
:10484000D43888BEE9FAA8BD00004054FB21F93FE6
:104850003163621A61B4D03D0000601A61B4D03D8A
:104860007370032E8A19A33B0000002E8A19A33B04
:10487000C14920259A837B39000000000000000018
:104880006E83F9A22915444ED15727FCC0DD34F5BB
:10489000999562DB4190433CAB6351FE61C5BBDE41
:1048A0003A6E24B7E0D24D42EA2E49061C92D10955
:1048B0001CEB1DFE3EA729B1F53582E88444BB2ED2
:1048C00026709CE9417E5FB439D69139F43953831F
:1048D0008B5F849C3B28F9BDFF97F81F0F9805DE7E
:1048E0008B112FEF1F6D0A5ACF7E366DB709CB277C
:1048F000663F464F2DEA5F9EC7BA27757BF1E5EB11
:10490000F739073DEA92528AB15FFB6B085D8D1F54
:10491000A6F810111111813FD561C119A0012ABF5C
:104920007DFEB157E31DC73EEB9C2B8AE6E55ABEE0
:104930007CD5CF5A3AD9E53D5849000800000020FF
:10494000400100005A070008A84900084001002063
:10495000180B0000602E000842012D010203040420
:10496000B506070809391C6908421437A041A69BFF
:10497000443B2240A37A431A4010819AA00C011AAA
:1049800052047AF044A5CDCC4C3E091618A3204120
:104990009A9680014023A0429AC874CBCC3E7849B5
:0849A000FC51C4803B450000FE
:040000050800018965
:00000001FF
